{
  "contractName": "GameStandsTallBy21",
  "abi": [
    {
      "constant": true,
      "inputs": [],
      "name": "round",
      "outputs": [
        {
          "name": "",
          "type": "uint256"
        }
      ],
      "payable": false,
      "stateMutability": "view",
      "type": "function"
    },
    {
      "constant": true,
      "inputs": [],
      "name": "overallBalanceUplimit",
      "outputs": [
        {
          "name": "",
          "type": "uint256"
        }
      ],
      "payable": false,
      "stateMutability": "view",
      "type": "function"
    },
    {
      "constant": true,
      "inputs": [
        {
          "name": "",
          "type": "address"
        }
      ],
      "name": "trbyplayerStrs",
      "outputs": [
        {
          "name": "weight",
          "type": "uint8"
        },
        {
          "name": "thisrbykey",
          "type": "uint8"
        },
        {
          "name": "PriceSize",
          "type": "uint256"
        },
        {
          "name": "dicemul",
          "type": "uint8"
        },
        {
          "name": "dicesize",
          "type": "uint256"
        },
        {
          "name": "lockingTime",
          "type": "uint256"
        },
        {
          "name": "randNonce",
          "type": "uint256"
        },
        {
          "name": "random",
          "type": "uint8"
        },
        {
          "name": "issubmit",
          "type": "bool"
        },
        {
          "name": "isinherent",
          "type": "bool"
        },
        {
          "name": "ismatching",
          "type": "bool"
        }
      ],
      "payable": false,
      "stateMutability": "view",
      "type": "function"
    },
    {
      "constant": true,
      "inputs": [],
      "name": "overallBalance",
      "outputs": [
        {
          "name": "",
          "type": "uint256"
        }
      ],
      "payable": false,
      "stateMutability": "view",
      "type": "function"
    },
    {
      "constant": true,
      "inputs": [
        {
          "name": "",
          "type": "uint256"
        }
      ],
      "name": "everyrbywinInfo",
      "outputs": [
        {
          "name": "rbykey",
          "type": "uint8"
        },
        {
          "name": "rbyoverallBalance",
          "type": "uint256"
        },
        {
          "name": "rbykeyonprice",
          "type": "uint256"
        }
      ],
      "payable": false,
      "stateMutability": "view",
      "type": "function"
    },
    {
      "constant": true,
      "inputs": [],
      "name": "oneDicePrice",
      "outputs": [
        {
          "name": "",
          "type": "uint256"
        }
      ],
      "payable": false,
      "stateMutability": "view",
      "type": "function"
    },
    {
      "inputs": [],
      "payable": false,
      "stateMutability": "nonpayable",
      "type": "constructor"
    },
    {
      "constant": false,
      "inputs": [
        {
          "name": "_adm",
          "type": "address"
        }
      ],
      "name": "setAdmin",
      "outputs": [],
      "payable": false,
      "stateMutability": "nonpayable",
      "type": "function"
    },
    {
      "constant": false,
      "inputs": [
        {
          "name": "weight",
          "type": "uint8"
        },
        {
          "name": "index",
          "type": "uint8"
        }
      ],
      "name": "BuyDice",
      "outputs": [],
      "payable": true,
      "stateMutability": "payable",
      "type": "function"
    },
    {
      "constant": false,
      "inputs": [
        {
          "name": "seatNumber",
          "type": "uint8"
        },
        {
          "name": "roomNum",
          "type": "uint8"
        }
      ],
      "name": "takePosition",
      "outputs": [
        {
          "name": "random",
          "type": "uint8"
        },
        {
          "name": "weight_",
          "type": "uint8"
        },
        {
          "name": "index_",
          "type": "uint8"
        }
      ],
      "payable": true,
      "stateMutability": "payable",
      "type": "function"
    },
    {
      "constant": false,
      "inputs": [
        {
          "name": "seatNumber",
          "type": "uint8"
        },
        {
          "name": "roomNum",
          "type": "uint8"
        }
      ],
      "name": "matchingPosition",
      "outputs": [
        {
          "name": "random",
          "type": "uint8"
        },
        {
          "name": "weight_",
          "type": "uint8"
        },
        {
          "name": "index_",
          "type": "uint8"
        }
      ],
      "payable": true,
      "stateMutability": "payable",
      "type": "function"
    },
    {
      "constant": false,
      "inputs": [
        {
          "name": "seatNumber",
          "type": "uint8"
        },
        {
          "name": "roomNum",
          "type": "uint8"
        }
      ],
      "name": "inherentsubmit",
      "outputs": [
        {
          "name": "",
          "type": "bool"
        }
      ],
      "payable": false,
      "stateMutability": "nonpayable",
      "type": "function"
    },
    {
      "constant": false,
      "inputs": [
        {
          "name": "seatNumber",
          "type": "uint8"
        },
        {
          "name": "roomNum",
          "type": "uint8"
        }
      ],
      "name": "matchingsubmit",
      "outputs": [],
      "payable": false,
      "stateMutability": "nonpayable",
      "type": "function"
    },
    {
      "constant": false,
      "inputs": [
        {
          "name": "_round",
          "type": "uint256"
        },
        {
          "name": "_balance",
          "type": "uint256"
        }
      ],
      "name": "drawmoneybyround",
      "outputs": [],
      "payable": false,
      "stateMutability": "nonpayable",
      "type": "function"
    },
    {
      "constant": true,
      "inputs": [
        {
          "name": "_round",
          "type": "uint256"
        }
      ],
      "name": "iswinbyallbalance",
      "outputs": [
        {
          "name": "key_",
          "type": "uint8"
        },
        {
          "name": "oneprice_",
          "type": "uint256"
        },
        {
          "name": "allbalance_",
          "type": "uint256"
        },
        {
          "name": "allkeys_",
          "type": "uint256"
        }
      ],
      "payable": false,
      "stateMutability": "view",
      "type": "function"
    },
    {
      "constant": false,
      "inputs": [
        {
          "name": "_price",
          "type": "uint256"
        }
      ],
      "name": "setOneDicePrice",
      "outputs": [],
      "payable": false,
      "stateMutability": "nonpayable",
      "type": "function"
    },
    {
      "constant": false,
      "inputs": [
        {
          "name": "_price",
          "type": "uint256"
        }
      ],
      "name": "setoverallBalanceUplimit",
      "outputs": [],
      "payable": false,
      "stateMutability": "nonpayable",
      "type": "function"
    },
    {
      "constant": true,
      "inputs": [
        {
          "name": "_round",
          "type": "uint256"
        }
      ],
      "name": "queryeveryrbywinInfobyround",
      "outputs": [
        {
          "name": "key_",
          "type": "uint8"
        },
        {
          "name": "allbalance_",
          "type": "uint256"
        },
        {
          "name": "oneprice_",
          "type": "uint256"
        }
      ],
      "payable": false,
      "stateMutability": "view",
      "type": "function"
    },
    {
      "constant": true,
      "inputs": [
        {
          "name": "_round",
          "type": "uint256"
        }
      ],
      "name": "queryallkeyandallpricesizebyround",
      "outputs": [
        {
          "name": "keys_",
          "type": "uint8[]"
        },
        {
          "name": "priceSizes_",
          "type": "uint256[]"
        }
      ],
      "payable": false,
      "stateMutability": "view",
      "type": "function"
    },
    {
      "constant": true,
      "inputs": [
        {
          "name": "weight",
          "type": "uint8"
        },
        {
          "name": "index",
          "type": "uint8"
        }
      ],
      "name": "callsite",
      "outputs": [
        {
          "name": "playaddr",
          "type": "address"
        },
        {
          "name": "balance",
          "type": "uint256"
        },
        {
          "name": "weight_",
          "type": "uint8"
        },
        {
          "name": "index_",
          "type": "uint8"
        }
      ],
      "payable": false,
      "stateMutability": "view",
      "type": "function"
    },
    {
      "constant": false,
      "inputs": [],
      "name": "kill",
      "outputs": [],
      "payable": false,
      "stateMutability": "nonpayable",
      "type": "function"
    },
    {
      "constant": true,
      "inputs": [],
      "name": "balanceofthis",
      "outputs": [
        {
          "name": "",
          "type": "uint256"
        }
      ],
      "payable": false,
      "stateMutability": "view",
      "type": "function"
    }
  ],
  "bytecode": "0x608060405234801561001057600080fd5b50336000806101000a81548173ffffffffffffffffffffffffffffffffffffffff021916908373ffffffffffffffffffffffffffffffffffffffff16021790555066038d7ea4c680006003819055506001600281905550662386f26fc10000600581905550613b31806100846000396000f30060806040526004361061011d576000357c0100000000000000000000000000000000000000000000000000000000900463ffffffff168063146ca53114610122578063151ece681461014d5780631a0040c91461021757806328afd8c81461024257806341c0e1b51461027f578063441ceeb0146102965780634814a0d7146102c15780634a6af8a71461038257806350f5829b146103de578063704b6c02146104095780637114eb3b1461044c57806375a4f57f146104ea5780637c56e17a1461054e5780637e0c6483146105855780639d28f3b8146105b2578063a81fa742146105df578063bfc24a8314610634578063ca5fdbdd14610664578063caf17069146106b9578063d95fcc131461070e578063f84819f614610772575b600080fd5b34801561012e57600080fd5b5061013761079d565b6040518082815260200191505060405180910390f35b34801561015957600080fd5b50610178600480360381019080803590602001909291905050506107a3565b604051808060200180602001838103835285818151815260200191508051906020019060200280838360005b838110156101bf5780820151818401526020810190506101a4565b50505050905001838103825284818151815260200191508051906020019060200280838360005b838110156102015780820151818401526020810190506101e6565b5050505090500194505050505060405180910390f35b34801561022357600080fd5b5061022c610919565b6040518082815260200191505060405180910390f35b34801561024e57600080fd5b5061027d600480360381019080803560ff169060200190929190803560ff16906020019092919050505061091f565b005b34801561028b57600080fd5b50610294610a46565b005b3480156102a257600080fd5b506102ab610adb565b6040518082815260200191505060405180910390f35b3480156102cd57600080fd5b50610302600480360381019080803573ffffffffffffffffffffffffffffffffffffffff169060200190929190505050610afa565b604051808c60ff1660ff1681526020018b60ff1660ff1681526020018a81526020018960ff1660ff1681526020018881526020018781526020018681526020018560ff1660ff1681526020018415151515815260200183151515158152602001821515151581526020019b50505050505050505050505060405180910390f35b34801561038e57600080fd5b506103ad60048036038101908080359060200190929190505050610baf565b604051808560ff1660ff16815260200184815260200183815260200182815260200194505050505060405180910390f35b3480156103ea57600080fd5b506103f3610ca1565b6040518082815260200191505060405180910390f35b34801561041557600080fd5b5061044a600480360381019080803573ffffffffffffffffffffffffffffffffffffffff169060200190929190505050610ca7565b005b34801561045857600080fd5b50610487600480360381019080803560ff169060200190929190803560ff169060200190929190505050610d46565b604051808573ffffffffffffffffffffffffffffffffffffffff1673ffffffffffffffffffffffffffffffffffffffff1681526020018481526020018360ff1660ff1681526020018260ff1660ff16815260200194505050505060405180910390f35b610518600480360381019080803560ff169060200190929190803560ff169060200190929190505050610de4565b604051808460ff1660ff1681526020018360ff1660ff1681526020018260ff1660ff168152602001935050505060405180910390f35b34801561055a57600080fd5b5061058360048036038101908080359060200190929190803590602001909291905050506111b2565b005b34801561059157600080fd5b506105b0600480360381019080803590602001909291905050506112d8565b005b3480156105be57600080fd5b506105dd600480360381019080803590602001909291905050506113b6565b005b3480156105eb57600080fd5b5061060a60048036038101908080359060200190929190505050611494565b604051808460ff1660ff168152602001838152602001828152602001935050505060405180910390f35b610662600480360381019080803560ff169060200190929190803560ff1690602001909291905050506114da565b005b34801561067057600080fd5b5061068f6004803603810190808035906020019092919050505061190f565b604051808460ff1660ff168152602001838152602001828152602001935050505060405180910390f35b3480156106c557600080fd5b506106f4600480360381019080803560ff169060200190929190803560ff169060200190929190505050611991565b604051808215151515815260200191505060405180910390f35b61073c600480360381019080803560ff169060200190929190803560ff169060200190929190505050611a10565b604051808460ff1660ff1681526020018360ff1660ff1681526020018260ff1660ff168152602001935050505060405180910390f35b34801561077e57600080fd5b50610787611e1f565b6040518082815260200191505060405180910390f35b60025481565b6060806008600084815260200190815260200160002060003373ffffffffffffffffffffffffffffffffffffffff1673ffffffffffffffffffffffffffffffffffffffff16815260200190815260200160002060070180548060200260200160405190810160405280929190818152602001828054801561086957602002820191906000526020600020906000905b82829054906101000a900460ff1660ff16815260200190600101906020826000010492830192600103820291508084116108325790505b505050505091506008600084815260200190815260200160002060003373ffffffffffffffffffffffffffffffffffffffff1673ffffffffffffffffffffffffffffffffffffffff16815260200190815260200160002060080180548060200260200160405190810160405280929190818152602001828054801561090d57602002820191906000526020600020905b8154815260200190600101908083116108f9575b50505050509050915091565b60055481565b6000806001151582600b0160009054906101000a900460ff1615151415151561094757600080fd5b600a60003373ffffffffffffffffffffffffffffffffffffffff1673ffffffffffffffffffffffffffffffffffffffff1681526020019081526020016000209150600182600b0160006101000a81548160ff021916908315150217905550600d60008460ff1660ff16815260200190815260200160002060008560ff1660ff16815260200190815260200160002060009054906101000a900473ffffffffffffffffffffffffffffffffffffffff169050600073ffffffffffffffffffffffffffffffffffffffff168173ffffffffffffffffffffffffffffffffffffffff1614151515610a3457600080fd5b610a4081338587611e25565b50505050565b6000809054906101000a900473ffffffffffffffffffffffffffffffffffffffff1673ffffffffffffffffffffffffffffffffffffffff163373ffffffffffffffffffffffffffffffffffffffff16141515610aa157600080fd5b6000809054906101000a900473ffffffffffffffffffffffffffffffffffffffff1673ffffffffffffffffffffffffffffffffffffffff16ff5b60003073ffffffffffffffffffffffffffffffffffffffff1631905090565b600a6020528060005260406000206000915090508060000160009054906101000a900460ff16908060000160019054906101000a900460ff16908060010154908060020160009054906101000a900460ff16908060030154908060040154908060050154908060060160009054906101000a900460ff169080600b0160009054906101000a900460ff169080600b0160019054906101000a900460ff169080600b0160029054906101000a900460ff1690508b565b600080600080600785815481101515610bc457fe5b906000526020600020906003020160000160009054906101000a900460ff169350600785815481101515610bf457fe5b906000526020600020906003020160000160009054906101000a900460ff1660ff1692506008600086815260200190815260200160002060003373ffffffffffffffffffffffffffffffffffffffff1673ffffffffffffffffffffffffffffffffffffffff168152602001908152602001600020600a0160008560ff1660ff168152602001908152602001600020549050610c9883826125ea90919063ffffffff16565b91509193509193565b60045481565b6000809054906101000a900473ffffffffffffffffffffffffffffffffffffffff1673ffffffffffffffffffffffffffffffffffffffff163373ffffffffffffffffffffffffffffffffffffffff16141515610d0257600080fd5b80600160006101000a81548173ffffffffffffffffffffffffffffffffffffffff021916908373ffffffffffffffffffffffffffffffffffffffff16021790555050565b600080600080600d60008760ff1660ff16815260200190815260200160002060008660ff1660ff16815260200190815260200160002060009054906101000a900473ffffffffffffffffffffffffffffffffffffffff169350600c60008760ff1660ff16815260200190815260200160002060008660ff1660ff16815260200190815260200160002060010154925085915084905092959194509250565b600080600060018460ff161480610dfe5750600a8460ff16145b80610e0c575060648460ff16145b1515610e1757600080fd5b60008560ff16118015610e2e5750600a8560ff1611155b1515610e3957600080fd5b60001515600a60003373ffffffffffffffffffffffffffffffffffffffff1673ffffffffffffffffffffffffffffffffffffffff168152602001908152602001600020600b0160029054906101000a900460ff161515141515610e9b57600080fd5b6001600a60003373ffffffffffffffffffffffffffffffffffffffff1673ffffffffffffffffffffffffffffffffffffffff168152602001908152602001600020600b0160026101000a81548160ff021916908315150217905550348460ff1660035402141515610f0b57600080fd5b60001515600e60008660ff1660ff16815260200190815260200160002060008760ff1660ff16815260200190815260200160002060009054906101000a900460ff16151514151515610f5c57600080fd5b600073ffffffffffffffffffffffffffffffffffffffff16600d60008660ff1660ff16815260200190815260200160002060008760ff1660ff16815260200190815260200160002060009054906101000a900473ffffffffffffffffffffffffffffffffffffffff1673ffffffffffffffffffffffffffffffffffffffff1614151515610fe857600080fd5b600d60008560ff1660ff16815260200190815260200160002060008660ff1660ff16815260200190815260200160002060009054906101000a900473ffffffffffffffffffffffffffffffffffffffff1673ffffffffffffffffffffffffffffffffffffffff163373ffffffffffffffffffffffffffffffffffffffff161415151561107357600080fd5b33600f60008660ff1660ff16815260200190815260200160002060008760ff1660ff16815260200190815260200160002060006101000a81548173ffffffffffffffffffffffffffffffffffffffff021916908373ffffffffffffffffffffffffffffffffffffffff16021790555060093390806001815401808255809150509060018203906000526020600020016000909192909190916101000a81548173ffffffffffffffffffffffffffffffffffffffff021916908373ffffffffffffffffffffffffffffffffffffffff16021790555050611153338587612628565b849050839150600a60003373ffffffffffffffffffffffffffffffffffffffff1673ffffffffffffffffffffffffffffffffffffffff16815260200190815260200160002060060160009054906101000a900460ff1692509250925092565b60008060008060006111c387610baf565b80955081965082975083985050505050600082141515156111e357600080fd5b8583101515156111f257600080fd5b611217611208858861299090919063ffffffff16565b836129ba90919063ffffffff16565b9050806008600089815260200190815260200160002060003373ffffffffffffffffffffffffffffffffffffffff1673ffffffffffffffffffffffffffffffffffffffff168152602001908152602001600020600a0160008760ff1660ff168152602001908152602001600020819055503373ffffffffffffffffffffffffffffffffffffffff166108fc879081150290604051600060405180830381858888f193505050501580156112ce573d6000803e3d6000fd5b5050505050505050565b60008060009054906101000a900473ffffffffffffffffffffffffffffffffffffffff1673ffffffffffffffffffffffffffffffffffffffff163373ffffffffffffffffffffffffffffffffffffffff1614806113825750600160009054906101000a900473ffffffffffffffffffffffffffffffffffffffff1673ffffffffffffffffffffffffffffffffffffffff163373ffffffffffffffffffffffffffffffffffffffff16145b151561138d57600080fd5b600254905080806001019150508160116000838152602001908152602001600020819055505050565b60008060009054906101000a900473ffffffffffffffffffffffffffffffffffffffff1673ffffffffffffffffffffffffffffffffffffffff163373ffffffffffffffffffffffffffffffffffffffff1614806114605750600160009054906101000a900473ffffffffffffffffffffffffffffffffffffffff1673ffffffffffffffffffffffffffffffffffffffff163373ffffffffffffffffffffffffffffffffffffffff16145b151561146b57600080fd5b600254905080806001019150508160106000838152602001908152602001600020819055505050565b6007818154811015156114a357fe5b90600052602060002090600302016000915090508060000160009054906101000a900460ff16908060010154908060020154905083565b600080600a60003373ffffffffffffffffffffffffffffffffffffffff1673ffffffffffffffffffffffffffffffffffffffff16815260200190815260200160002091508360ff168260030154023414151561153557600080fd5b61012c826004015401421115151561154c57600080fd5b60158260000160019054906101000a900460ff1660ff1611158015611586575060008260000160019054906101000a900460ff1660ff1614155b151561159157600080fd5b8360ff16826003015402341415156115a857600080fd5b4282600401819055506115bc3360066129db565b838260000160006101000a81548160ff021916908360ff160217905550816003015490508160060160009054906101000a900460ff168260000160019054906101000a900460ff16018260000160016101000a81548160ff021916908360ff160217905550600354826001015401826001018190555061165a60018360020160009054906101000a900460ff1660ff16612b4190919063ffffffff16565b8260020160006101000a81548160ff021916908360ff16021790555061169c61168d60028361299090919063ffffffff16565b82612b4190919063ffffffff16565b82600301819055503373ffffffffffffffffffffffffffffffffffffffff16600d60008660ff1660ff16815260200190815260200160002060008560ff1660ff16815260200190815260200160002060009054906101000a900473ffffffffffffffffffffffffffffffffffffffff1673ffffffffffffffffffffffffffffffffffffffff1614156119095781600c60008660ff1660ff16815260200190815260200160002060008560ff1660ff1681526020019081526020016000206000820160009054906101000a900460ff168160000160006101000a81548160ff021916908360ff1602179055506000820160019054906101000a900460ff168160000160016101000a81548160ff021916908360ff160217905550600182015481600101556002820160009054906101000a900460ff168160020160006101000a81548160ff021916908360ff1602179055506003820154816003015560048201548160040155600582015481600501556006820160009054906101000a900460ff168160060160006101000a81548160ff021916908360ff160217905550600782018160070190805461184f929190613888565b5060088201816008019080546118669291906138e8565b50600982018160090190805461187d929190613888565b50600b820160009054906101000a900460ff1681600b0160006101000a81548160ff021916908315150217905550600b820160019054906101000a900460ff1681600b0160016101000a81548160ff021916908315150217905550600b820160029054906101000a900460ff1681600b0160026101000a81548160ff0219169083151502179055509050505b50505050565b600080600060078481548110151561192357fe5b906000526020600020906003020160000160009054906101000a900460ff16925060078481548110151561195357fe5b906000526020600020906003020160010154915060078481548110151561197657fe5b90600052602060002090600302016002015490509193909250565b6000806001151581600b0160009054906101000a900460ff161515141515156119b957600080fd5b600c60008460ff1660ff16815260200190815260200160002060008560ff1660ff1681526020019081526020016000209050600181600b0160006101000a81548160ff021916908315150217905591505092915050565b600080600060018460ff161480611a2a5750600a8460ff16145b80611a38575060648460ff16145b1515611a4357600080fd5b60008560ff16118015611a5a5750600a8560ff1611155b1515611a6557600080fd5b60001515600a60003373ffffffffffffffffffffffffffffffffffffffff1673ffffffffffffffffffffffffffffffffffffffff168152602001908152602001600020600b0160019054906101000a900460ff161515141515611ac757600080fd5b6001600a60003373ffffffffffffffffffffffffffffffffffffffff1673ffffffffffffffffffffffffffffffffffffffff168152602001908152602001600020600b0160016101000a81548160ff021916908315150217905550348460ff1660035402141515611b3757600080fd5b600073ffffffffffffffffffffffffffffffffffffffff16600d60008660ff1660ff16815260200190815260200160002060008760ff1660ff16815260200190815260200160002060009054906101000a900473ffffffffffffffffffffffffffffffffffffffff1673ffffffffffffffffffffffffffffffffffffffff16148015611c3f5750600073ffffffffffffffffffffffffffffffffffffffff16600f60008660ff1660ff16815260200190815260200160002060008760ff1660ff16815260200190815260200160002060009054906101000a900473ffffffffffffffffffffffffffffffffffffffff1673ffffffffffffffffffffffffffffffffffffffff16145b8015611c8c575060001515600e60008660ff1660ff16815260200190815260200160002060008760ff1660ff16815260200190815260200160002060009054906101000a900460ff161515145b1515611c9757600080fd5b33600d60008660ff1660ff16815260200190815260200160002060008760ff1660ff16815260200190815260200160002060006101000a81548173ffffffffffffffffffffffffffffffffffffffff021916908373ffffffffffffffffffffffffffffffffffffffff1602179055506001600e60008660ff1660ff16815260200190815260200160002060008760ff1660ff16815260200190815260200160002060006101000a81548160ff02191690831515021790555060093390806001815401808255809150509060018203906000526020600020016000909192909190916101000a81548173ffffffffffffffffffffffffffffffffffffffff021916908373ffffffffffffffffffffffffffffffffffffffff16021790555050611dc0338587612628565b849050839150600a60003373ffffffffffffffffffffffffffffffffffffffff1673ffffffffffffffffffffffffffffffffffffffff16815260200190815260200160002060060160009054906101000a900460ff1692509250925092565b60035481565b611e2d61393a565b611e3561393a565b6000806000808873ffffffffffffffffffffffffffffffffffffffff168a73ffffffffffffffffffffffffffffffffffffffff1614151515611e7657600080fd5b8973ffffffffffffffffffffffffffffffffffffffff16600d60008a60ff1660ff16815260200190815260200160002060008960ff1660ff16815260200190815260200160002060009054906101000a900473ffffffffffffffffffffffffffffffffffffffff1673ffffffffffffffffffffffffffffffffffffffff16141515611f0057600080fd5b600c60008960ff1660ff16815260200190815260200160002060008860ff1660ff1681526020019081526020016000206101c060405190810160405290816000820160009054906101000a900460ff1660ff1660ff1681526020016000820160019054906101000a900460ff1660ff1660ff168152602001600182015481526020016002820160009054906101000a900460ff1660ff1660ff1681526020016003820154815260200160048201548152602001600582015481526020016006820160009054906101000a900460ff1660ff1660ff1681526020016007820180548060200260200160405190810160405280929190818152602001828054801561204e57602002820191906000526020600020906000905b82829054906101000a900460ff1660ff16815260200190600101906020826000010492830192600103820291508084116120175790505b50505050508152602001600882018054806020026020016040519081016040528092919081815260200182805480156120a657602002820191906000526020600020905b815481526020019060010190808311612092575b505050505081526020016009820180548060200260200160405190810160405280929190818152602001828054801561212457602002820191906000526020600020906000905b82829054906101000a900460ff1660ff16815260200190600101906020826000010492830192600103820291508084116120ed5790505b50505050508152602001600b820160009054906101000a900460ff16151515158152602001600b820160019054906101000a900460ff16151515158152602001600b820160029054906101000a900460ff1615151515815250509550600a60008a73ffffffffffffffffffffffffffffffffffffffff1673ffffffffffffffffffffffffffffffffffffffff1681526020019081526020016000206101c060405190810160405290816000820160009054906101000a900460ff1660ff1660ff1681526020016000820160019054906101000a900460ff1660ff1660ff168152602001600182015481526020016002820160009054906101000a900460ff1660ff1660ff1681526020016003820154815260200160048201548152602001600582015481526020016006820160009054906101000a900460ff1660ff1660ff168152602001600782018054806020026020016040519081016040528092919081815260200182805480156122dd57602002820191906000526020600020906000905b82829054906101000a900460ff1660ff16815260200190600101906020826000010492830192600103820291508084116122a65790505b505050505081526020016008820180548060200260200160405190810160405280929190818152602001828054801561233557602002820191906000526020600020905b815481526020019060010190808311612321575b50505050508152602001600982018054806020026020016040519081016040528092919081815260200182805480156123b357602002820191906000526020600020906000905b82829054906101000a900460ff1660ff168152602001906001019060208260000104928301926001038202915080841161237c5790505b50505050508152602001600b820160009054906101000a900460ff16151515158152602001600b820160019054906101000a900460ff16151515158152602001600b820160029054906101000a900460ff1615151515815250509450600115158561016001511515876101600151151514151514151561243257600080fd5b856020015193508460200151925060008460ff1614158015612458575060008360ff1614155b151561246357600080fd5b61247e85604001518760400151612b4190919063ffffffff16565b9150600061249b8460ff168660ff166129ba90919063ffffffff16565b11156124b0576124ab828b612b62565b6125bc565b60006124cb8460ff168660ff166129ba90919063ffffffff16565b14156125195760006124f4866060015160ff16886060015160ff166129ba90919063ffffffff16565b101561250957612504828b612b62565b612514565b612513828a612b62565b5b6125bb565b612534856040015187604001516129ba90919063ffffffff16565b905060008111156125af57612557600286604001516125ea90919063ffffffff16565b91508973ffffffffffffffffffffffffffffffffffffffff166108fc829081150290604051600060405180830381858888f1935050505015801561259f573d6000803e3d6000fd5b506125aa828a612b62565b6125ba565b6125b9828a612b62565b5b5b5b6125c88a8a8a8a612ca2565b6005546004541015156125de576125dd612cc4565b5b50505050505050505050565b60008060008414156125ff5760009150612621565b828402905082848281151561261057fe5b0414151561261d57600080fd5b8091505b5092915050565b6000600a60008573ffffffffffffffffffffffffffffffffffffffff1673ffffffffffffffffffffffffffffffffffffffff168152602001908152602001600020905042816004018190555061267f8460066129db565b828160000160006101000a81548160ff021916908360ff1602179055508060060160009054906101000a900460ff168160000160016101000a81548160ff021916908360ff160217905550600354816001018190555060018160020160006101000a81548160ff021916908360ff16021790555061271d61270c600260035461299090919063ffffffff16565b600354612b4190919063ffffffff16565b81600301819055503373ffffffffffffffffffffffffffffffffffffffff16600d60008560ff1660ff16815260200190815260200160002060008460ff1660ff16815260200190815260200160002060009054906101000a900473ffffffffffffffffffffffffffffffffffffffff1673ffffffffffffffffffffffffffffffffffffffff16141561298a5780600c60008560ff1660ff16815260200190815260200160002060008460ff1660ff1681526020019081526020016000206000820160009054906101000a900460ff168160000160006101000a81548160ff021916908360ff1602179055506000820160019054906101000a900460ff168160000160016101000a81548160ff021916908360ff160217905550600182015481600101556002820160009054906101000a900460ff168160020160006101000a81548160ff021916908360ff1602179055506003820154816003015560048201548160040155600582015481600501556006820160009054906101000a900460ff168160060160006101000a81548160ff021916908360ff16021790555060078201816007019080546128d0929190613888565b5060088201816008019080546128e79291906138e8565b5060098201816009019080546128fe929190613888565b50600b820160009054906101000a900460ff1681600b0160006101000a81548160ff021916908315150217905550600b820160019054906101000a900460ff1681600b0160016101000a81548160ff021916908315150217905550600b820160029054906101000a900460ff1681600b0160026101000a81548160ff0219169083151502179055509050505b50505050565b6000806000831115156129a257600080fd5b82848115156129ad57fe5b0490508091505092915050565b6000808383111515156129cc57600080fd5b82840390508091505092915050565b6000600a60008473ffffffffffffffffffffffffffffffffffffffff1673ffffffffffffffffffffffffffffffffffffffff168152602001908152602001600020905060018260ff1642338460050154604051602001808481526020018373ffffffffffffffffffffffffffffffffffffffff1673ffffffffffffffffffffffffffffffffffffffff166c0100000000000000000000000002815260140182815260200193505050506040516020818303038152906040526040518082805190602001908083835b602083101515612ac85780518252602082019150602081019050602083039250612aa3565b6001836020036101000a03801982511681845116808217855250505050505090500191505060405180910390206001900460ff16811515612b0557fe5b06018160060160006101000a81548160ff021916908360ff160217905550612b3b60018260050154612b4190919063ffffffff16565b50505050565b6000808284019050838110151515612b5857600080fd5b8091505092915050565b600080612b8c6064612b7e6050876125ea90919063ffffffff16565b61299090919063ffffffff16565b9150612bb56064612ba76005876125ea90919063ffffffff16565b61299090919063ffffffff16565b90508273ffffffffffffffffffffffffffffffffffffffff166108fc839081150290604051600060405180830381858888f19350505050158015612bfd573d6000803e3d6000fd5b50612c256064612c17600f876125ea90919063ffffffff16565b61299090919063ffffffff16565b6004600082825401925050819055506000809054906101000a900473ffffffffffffffffffffffffffffffffffffffff1673ffffffffffffffffffffffffffffffffffffffff166108fc829081150290604051600060405180830381858888f19350505050158015612c9b573d6000803e3d6000fd5b5050505050565b612cac8183612ef6565b612cb584613255565b612cbe83613255565b50505050565b60008060055460045410151515612cda57600080fd5b600160154233600454604051602001808481526020018373ffffffffffffffffffffffffffffffffffffffff1673ffffffffffffffffffffffffffffffffffffffff166c0100000000000000000000000002815260140182815260200193505050506040516020818303038152906040526040518082805190602001908083835b602083101515612d805780518252602082019150602081019050602083039250612d5b565b6001836020036101000a03801982511681845116808217855250505050505090500191505060405180910390206001900460ff16811515612dbd57fe5b06019150600b60008360ff1660ff168152602001908152602001600020549050806007600254815481101515612def57fe5b9060005260206000209060030201600201819055506004546007600254815481101515612e1857fe5b906000526020600020906003020160010181905550816007600254815481101515612e3f57fe5b906000526020600020906003020160000160006101000a81548160ff021916908360ff160217905550600260008154809291906001019190505550600060106000600254815260200190815260200160002054141515612eb657601060006002548152602001908152602001600020546003819055505b600060116000600254815260200190815260200160002054141515612ef257601160006002548152602001908152602001600020546005819055505b5050565b612efe61393a565b600073ffffffffffffffffffffffffffffffffffffffff16600d60008460ff1660ff16815260200190815260200160002060008560ff1660ff16815260200190815260200160002060009054906101000a900473ffffffffffffffffffffffffffffffffffffffff1673ffffffffffffffffffffffffffffffffffffffff1614151515612f8a57600080fd5b6000600d60008460ff1660ff16815260200190815260200160002060008560ff1660ff16815260200190815260200160002060006101000a81548173ffffffffffffffffffffffffffffffffffffffff021916908373ffffffffffffffffffffffffffffffffffffffff1602179055506000600e60008460ff1660ff16815260200190815260200160002060008560ff1660ff16815260200190815260200160002060006101000a81548160ff0219169083151502179055506000600f60008460ff1660ff16815260200190815260200160002060008560ff1660ff16815260200190815260200160002060006101000a81548173ffffffffffffffffffffffffffffffffffffffff021916908373ffffffffffffffffffffffffffffffffffffffff16021790555080600c60008460ff1660ff16815260200190815260200160002060008560ff1660ff16815260200190815260200160002060008201518160000160006101000a81548160ff021916908360ff16021790555060208201518160000160016101000a81548160ff021916908360ff1602179055506040820151816001015560608201518160020160006101000a81548160ff021916908360ff1602179055506080820151816003015560a0820151816004015560c0820151816005015560e08201518160060160006101000a81548160ff021916908360ff1602179055506101008201518160070190805190602001906131ad9291906139bc565b506101208201518160080190805190602001906131cb929190613a63565b506101408201518160090190805190602001906131e99291906139bc565b5061016082015181600b0160006101000a81548160ff02191690831515021790555061018082015181600b0160016101000a81548160ff0219169083151502179055506101a082015181600b0160026101000a81548160ff021916908315150217905550905050505050565b600061325f61393a565b600a60008473ffffffffffffffffffffffffffffffffffffffff1673ffffffffffffffffffffffffffffffffffffffff1681526020019081526020016000209150816007018260000160019054906101000a900460ff16908060018154018082558091505090600182039060005260206000209060209182820401919006909192909190916101000a81548160ff021916908360ff160217905550508160080182600101549080600181540180825580915050906001820390600052602060002001600090919290919091505550816009018260020160009054906101000a900460ff16908060018154018082558091505090600182039060005260206000209060209182820401919006909192909190916101000a81548160ff021916908360ff160217905550508160000160009054906101000a900460ff1660ff1682600a0160008460000160019054906101000a900460ff1660ff1660ff168152602001908152602001600020600082825401925050819055508160000160009054906101000a900460ff1660ff16600b60008460000160019054906101000a900460ff1660ff1660ff1681526020019081526020016000206000828254019250508190555060008260000160006101000a81548160ff021916908360ff16021790555060008260000160016101000a81548160ff021916908360ff16021790555060008260020160006101000a81548160ff021916908360ff16021790555060008260030181905550600082600401819055506000826005018190555060008260060160006101000a81548160ff021916908360ff160217905550600082600b0160006101000a81548160ff0219169083151502179055508160086000600254815260200190815260200160002060008573ffffffffffffffffffffffffffffffffffffffff1673ffffffffffffffffffffffffffffffffffffffff1681526020019081526020016000206000820160009054906101000a900460ff168160000160006101000a81548160ff021916908360ff1602179055506000820160019054906101000a900460ff168160000160016101000a81548160ff021916908360ff160217905550600182015481600101556002820160009054906101000a900460ff168160020160006101000a81548160ff021916908360ff1602179055506003820154816003015560048201548160040155600582015481600501556006820160009054906101000a900460ff168160060160006101000a81548160ff021916908360ff160217905550600782018160070190805461361e929190613888565b5060088201816008019080546136359291906138e8565b50600982018160090190805461364c929190613888565b50600b820160009054906101000a900460ff1681600b0160006101000a81548160ff021916908315150217905550600b820160019054906101000a900460ff1681600b0160016101000a81548160ff021916908315150217905550600b820160029054906101000a900460ff1681600b0160026101000a81548160ff02191690831515021790555090505080600a60008573ffffffffffffffffffffffffffffffffffffffff1673ffffffffffffffffffffffffffffffffffffffff16815260200190815260200160002060008201518160000160006101000a81548160ff021916908360ff16021790555060208201518160000160016101000a81548160ff021916908360ff1602179055506040820151816001015560608201518160020160006101000a81548160ff021916908360ff1602179055506080820151816003015560a0820151816004015560c0820151816005015560e08201518160060160006101000a81548160ff021916908360ff1602179055506101008201518160070190805190602001906137e09291906139bc565b506101208201518160080190805190602001906137fe929190613a63565b5061014082015181600901908051906020019061381c9291906139bc565b5061016082015181600b0160006101000a81548160ff02191690831515021790555061018082015181600b0160016101000a81548160ff0219169083151502179055506101a082015181600b0160026101000a81548160ff021916908315150217905550905050505050565b82805482825590600052602060002090601f016020900481019282156138d757600052602060002091601f016020900482015b828111156138d65782548255916001019190600101906138bb565b5b5090506138e49190613ab0565b5090565b8280548282559060005260206000209081019282156139295760005260206000209182015b8281111561392857825482559160010191906001019061390d565b5b5090506139369190613ae0565b5090565b6101c060405190810160405280600060ff168152602001600060ff16815260200160008152602001600060ff168152602001600081526020016000815260200160008152602001600060ff1681526020016060815260200160608152602001606081526020016000151581526020016000151581526020016000151581525090565b82805482825590600052602060002090601f01602090048101928215613a525791602002820160005b83821115613a2357835183826101000a81548160ff021916908360ff16021790555092602001926001016020816000010492830192600103026139e5565b8015613a505782816101000a81549060ff0219169055600101602081600001049283019260010302613a23565b505b509050613a5f9190613ab0565b5090565b828054828255906000526020600020908101928215613a9f579160200282015b82811115613a9e578251825591602001919060010190613a83565b5b509050613aac9190613ae0565b5090565b613add91905b80821115613ad957600081816101000a81549060ff021916905550600101613ab6565b5090565b90565b613b0291905b80821115613afe576000816000905550600101613ae6565b5090565b905600a165627a7a7230582070e0ab5777e74f004ce2be14ec2426656f991c20d39f6cb82c81db2bde44b11f0029",
  "source": "pragma solidity ^0.4.17;\r\nlibrary SafeMath {\r\n\r\n  /**\r\n  * @dev Multiplies two numbers, reverts on overflow.\r\n  */\r\n  function mul(uint256 a, uint256 b) internal pure returns (uint256) {\r\n    // Gas optimization: this is cheaper than requiring 'a' not being zero, but the\r\n    // benefit is lost if 'b' is also tested.\r\n    // See: https://github.com/OpenZeppelin/openzeppelin-solidity/pull/522\r\n    if (a == 0) {\r\n      return 0;\r\n    }\r\n\r\n    uint256 c = a * b;\r\n    require(c / a == b);\r\n\r\n    return c;\r\n  }\r\n\r\n  /**\r\n  * @dev Integer division of two numbers truncating the quotient, reverts on division by zero.\r\n  */\r\n  function div(uint256 a, uint256 b) internal pure returns (uint256) {\r\n    require(b > 0); // Solidity only automatically asserts when dividing by 0\r\n    uint256 c = a / b;\r\n    // assert(a == b * c + a % b); // There is no case in which this doesn't hold\r\n\r\n    return c;\r\n  }\r\n\r\n  /**\r\n  * @dev Subtracts two numbers, reverts on overflow (i.e. if subtrahend is greater than minuend).\r\n  */\r\n  function sub(uint256 a, uint256 b) internal pure returns (uint256) {\r\n    require(b <= a);\r\n    uint256 c = a - b;\r\n\r\n    return c;\r\n  }\r\n\r\n  /**\r\n  * @dev Adds two numbers, reverts on overflow.\r\n  */\r\n  function add(uint256 a, uint256 b) internal pure returns (uint256) {\r\n    uint256 c = a + b;\r\n    require(c >= a);\r\n\r\n    return c;\r\n  }\r\n\r\n  /**\r\n  * @dev Divides two numbers and returns the remainder (unsigned integer modulo),\r\n  * reverts when dividing by zero.\r\n  */\r\n  function mod(uint256 a, uint256 b) internal pure returns (uint256) {\r\n    require(b != 0);\r\n    return a % b;\r\n  }\r\n}\r\n\r\ncontract GameStandsTallBy21{\r\n    \tusing SafeMath for *;\r\n\r\n    // 2121\r\n    // \r\n\r\n    // 12\r\n\t// \r\n    // \r\n    // \r\n    // 12\r\n    // 80%20%60%30%10%\r\n    \r\n    // \r\n    // 1.150.001ether\r\n    // 21\r\n\t// \r\n    // \r\n\t// \r\n    // 80%,15%g5%\r\n    // 80%,15%g5%\r\n    // \r\n    // \r\n    address owner;\r\n    // \r\n    address admin;\r\n    //\r\n    uint256 public round ;\r\n    //\r\n    uint256 public oneDicePrice;\r\n    //\r\n    uint256 public overallBalance;\r\n    // \r\n    uint256 public overallBalanceUplimit;\r\n    //key21key  \r\n    \r\n     //\r\n    uint256 dicelevel;\r\n\r\n    //\r\n    struct winInfo{\r\n            uint8 rbykey;\r\n            uint256 rbyoverallBalance;\r\n            uint256 rbykeyonprice;\r\n    }\r\n\r\n    //\r\n    winInfo[] public everyrbywinInfo;\r\n    //\r\n    mapping(\r\n        uint256=>mapping(address=>playerStr)\r\n        )private\r\n         everyrbypalyerstrInfo;\r\n    //\r\n    address[] trbyplayeradrr;\r\n    //\r\n    mapping(address=>playerStr) public trbyplayerStrs;\r\n    //\r\n    struct playerStr{\r\n            // 1 10 100 \r\n            uint8 weight;\r\n            // \r\n            uint8 thisrbykey;\r\n            //\r\n            uint256 PriceSize;\r\n            //\r\n            uint8 dicemul;\r\n            // \r\n            uint256 dicesize;\r\n            //\r\n            uint lockingTime; \r\n            //\r\n            uint randNonce; \r\n            //\r\n            uint8 random; \r\n            //\r\n            uint8 [] thisrbykeys;\r\n            //\r\n            uint256 [] PriceSizes;\r\n             //\r\n            uint8 [] dicemuls;\r\n            // size => howmany =( 1 1010 100) \r\n            mapping(uint8=>uint256) sizebyhowmany;\r\n            //\r\n            bool issubmit;\r\n            //  \r\n            bool isinherent;\r\n            //\r\n            bool ismatching;\r\n\r\n    }\r\n    //key=>Allkey\r\n    mapping(uint8=>uint256) private Allkey;\r\n    //  => index=>   private\r\n    mapping(uint8=>mapping(uint8=>playerStr)) private inherent10Info;\r\n    // => index=>  private\r\n    mapping(uint8=>mapping(uint8=>address)) private inherent10addrstate;\r\n    // => index=> bool private\r\n    mapping(uint8=>mapping(uint8=>bool)) private inherent10matchingstate; \r\n    //  => index=> address private\r\n    mapping(uint8=>mapping(uint8=>address)) private inherent10matchingaddr; \r\n    // // index=>playerStr\r\n    // mapping(\r\n    //     uint256 =>mapping(address=>playerStr)\r\n    //     ) inherent10oneInfo;\r\n    // //\r\n    // mapping(uint256=>address)inherent10onestate;    \r\n    // //\r\n    //  mapping(\r\n    //     uint256 =>mapping(address=>playerStr)\r\n    //     ) inherent10tenInfo;\r\n    //     //\r\n    //     mapping(uint256=>address)inherent10tenstate;\r\n    // //\r\n    //  mapping(\r\n    //    uint256 =>mapping(address=>playerStr)\r\n    //     ) inherent10hundredInfo;\r\n    //     //\r\n    //  mapping(uint256=>address)inherent10hundredstate;\r\n    //\r\n    constructor() public{\r\n        owner=msg.sender;\r\n        oneDicePrice=0.001 ether;\r\n        round=1;\r\n        overallBalanceUplimit=0.01 ether;\r\n\r\n    }\r\n\r\n    //\r\n    modifier OnlyOwner(){\r\n        require(msg.sender==owner);\r\n        _;\r\n    }\r\n    //\r\n    modifier OnlyAdmin(){\r\n        require(msg.sender==owner||msg.sender==admin);\r\n        _;\r\n    }\r\n\r\n    //\r\n    function setAdmin(address _adm) \r\n        OnlyOwner()\r\n        external{\r\n            admin=_adm;\r\n    }\r\n   \r\n\r\n    //\r\n    //\r\n\r\n  \r\n    \r\n     //(1-6)\r\n    function Dice(address challenger,uint8 den) internal {\r\n        playerStr storage player = trbyplayerStrs[challenger];\r\n        player.random = uint8(keccak256(abi.encodePacked(now, msg.sender, player.randNonce)))%den+1;\r\n        player.randNonce.add(1);\r\n    }\r\n\r\n    // \r\n    function BuyDice(uint8 weight,uint8 index) public payable {\r\n        playerStr storage player = trbyplayerStrs[msg.sender];\r\n        //\r\n        require(msg.value==player.dicesize*weight);\r\n        require(now <= (player.lockingTime + 5 minutes));\r\n        //21 \r\n        require(player.thisrbykey <= 21&&player.thisrbykey!=0);\r\n        require(msg.value==player.dicesize*weight);\r\n            //\r\n            player.lockingTime = now;\r\n            //(1-6)\r\n            Dice(msg.sender,6);\r\n            //\r\n            player.weight = weight;\r\n            uint256 temp=player.dicesize;\r\n            player.thisrbykey = player.thisrbykey + player.random;\r\n            player.PriceSize = player.PriceSize + oneDicePrice;\r\n            player.dicemul = uint8(player.dicemul.add(1));\r\n            player.dicesize = temp.add(temp.div(2));\r\n        if(inherent10addrstate[weight][index]==msg.sender){\r\n            inherent10Info[weight][index]=player;\r\n        }\r\n       \r\n    }\r\n    // \r\n     function Placeholder(address placeholder, uint8 weight, uint8 index) internal {\r\n        playerStr storage player = trbyplayerStrs[placeholder];\r\n        //\r\n        //\r\n        player.lockingTime = now;\r\n        //(1-6)\r\n        Dice(placeholder,6);\r\n        //\r\n        player.weight = weight;\r\n        player.thisrbykey = player.random;\r\n        player.PriceSize = oneDicePrice;\r\n        player.dicemul = 1;\r\n        player.dicesize =oneDicePrice.add(oneDicePrice.div(2));\r\n        if(inherent10addrstate[weight][index]==msg.sender){\r\n            inherent10Info[weight][index] = player;\r\n        }\r\n        \r\n    }\r\n    \r\n    //\r\n    function matchingdraw(address _inherent,address _match,uint8 _weight,uint8 index) private                                                                                                                                                                                                                                                                                                                                                                                       {\r\n        require(_inherent!=_match);\r\n        require(inherent10addrstate[_weight][index]==_inherent);\r\n        playerStr memory _inherentplayer=inherent10Info[_weight][index];\r\n        playerStr memory _matchplayer=trbyplayerStrs[_match];\r\n        require(_inherentplayer.issubmit==_matchplayer.issubmit==true);\r\n        uint8 keyone=_inherentplayer.thisrbykey;\r\n        uint8 keytwo=_matchplayer.thisrbykey;\r\n        require(keyone!=0&&keytwo!=0);\r\n        uint256 allprice=_inherentplayer.PriceSize.add(_matchplayer.PriceSize);\r\n        if(keyone.sub(keytwo)>0){\r\n            winTransfer(allprice,_inherent);\r\n        }\r\n        else if(keyone.sub(keytwo)==0){\r\n              if(_inherentplayer.dicemul.sub(_matchplayer.dicemul)<0){\r\n                      winTransfer(allprice,_inherent);\r\n              }else{\r\n                      winTransfer(allprice,_match);\r\n              }  \r\n        }\r\n        else{\r\n                uint256 isresidue= _inherentplayer.PriceSize.sub(_matchplayer.PriceSize);\r\n                  if(isresidue>0){\r\n                      allprice=_matchplayer.PriceSize.mul(2);\r\n                      _inherent.transfer(isresidue);\r\n                      winTransfer(allprice,_match);\r\n                  }else{\r\n                      winTransfer(allprice,_match);\r\n                  }\r\n        }\r\n      wincleardata(_inherent,_match,_weight,index);\r\n      if(overallBalance>=overallBalanceUplimit){\r\n        overalldraw();\r\n        }\r\n    }\r\n    \r\n   // \r\n    function winTransfer(uint256 allprice,address winaddr) private{\r\n            uint256 winprice=allprice.mul(80).div(100);\r\n            uint256 winownerpricae=allprice.mul(5).div(100);\r\n            winaddr.transfer(winprice);\r\n            overallBalance+=allprice.mul(15).div(100);\r\n            owner.transfer(winownerpricae);\r\n    }\r\n   \r\n    //\r\n    function wincleardata(address _inherent,address _match,uint8 _weight,uint8 index) private{\r\n        clearPosition(index,_weight);\r\n        //\r\n        updateplayer(_inherent);\r\n        updateplayer(_match);\r\n       \r\n    }\r\n    //  \r\n    function updateplayer(address _addr) private{\r\n        playerStr storage player= trbyplayerStrs[_addr];\r\n        player.thisrbykeys.push(player.thisrbykey);\r\n        player.PriceSizes.push(player.PriceSize);\r\n        player.dicemuls.push(player.dicemul);\r\n        player.sizebyhowmany[player.thisrbykey]+=player.weight;\r\n        Allkey[player.thisrbykey]+=player.weight;\r\n        player.weight=0;\r\n        player.thisrbykey=0;\r\n        player.dicemul=0;\r\n        player.dicesize=0;\r\n        player.lockingTime=0;\r\n        player.randNonce=0;\r\n        player.random=0;\r\n        player.issubmit=false;\r\n        everyrbypalyerstrInfo[round][_addr]=player;\r\n        playerStr memory p1;\r\n        trbyplayerStrs[_addr]=p1;\r\n    }\r\n\r\n   \r\n\r\n    //,pk\r\n    //seatNumberroomNum\r\n    // \r\n    function clearPosition(uint8 seatNumber,uint8 roomNum)private{\r\n        //address0\r\n       require(inherent10addrstate[roomNum][seatNumber]!=address(0));\r\n       inherent10addrstate[roomNum][seatNumber]=address(0);\r\n       inherent10matchingstate[roomNum][seatNumber]=false;\r\n       inherent10matchingaddr[roomNum][seatNumber]=address(0);\r\n        //playerStr\r\n        playerStr memory  pl;\r\n       inherent10Info[roomNum][seatNumber]=pl;\r\n      \r\n    }\r\n    \r\n    //   //  => index=>   \r\n    // mapping(uint8=>mapping(uint8=>playerStr)) private inherent10Info;\r\n    // // => index=> \r\n    // mapping(uint8=>mapping(uint8=>address)) private inherent10addrstate;\r\n    // // => index=> bool\r\n    // mapping(uint8=>mapping(uint8=>bool)) private inherent10matchingstate; \r\n    // //  => index=> address\r\n    // mapping(uint8=>mapping(uint8=>address)) private inherent10matchingaddr; \r\n        //\r\n    //seatNumber//, roomNum//, periodsNum//\r\n    function takePosition(uint8 seatNumber,uint8 roomNum)public payable returns(uint8 random,uint8 weight_ ,uint8 index_){\r\n      require(roomNum==1||roomNum==10||roomNum==100);\r\n      require(seatNumber>0&&seatNumber<=10);\r\n      require(trbyplayerStrs[msg.sender].isinherent==false);\r\n      trbyplayerStrs[msg.sender].isinherent=true;\r\n      require(oneDicePrice *roomNum==msg.value);\r\n        ////address,\r\n      require(inherent10addrstate[roomNum][seatNumber]==address(0)&&\r\n      inherent10matchingaddr[roomNum][seatNumber]==address(0)&&\r\n      inherent10matchingstate[roomNum][seatNumber]==false);\r\n       //mapping\r\n      inherent10addrstate[roomNum][seatNumber]=msg.sender;\r\n      inherent10matchingstate[roomNum][seatNumber]=true;\r\n      //\r\n      trbyplayeradrr.push(msg.sender);\r\n      Placeholder(msg.sender,roomNum,seatNumber);\r\n       index_=seatNumber;\r\n       weight_=roomNum;\r\n       random=trbyplayerStrs[msg.sender].random;\r\n    }\r\n\r\n    //\r\n    function matchingPosition(uint8 seatNumber,uint8 roomNum)public payable returns(uint8 random,uint8 weight_ ,uint8 index_){\r\n       require(roomNum==1||roomNum==10||roomNum==100);\r\n       require(seatNumber>0&&seatNumber<=10);\r\n       require(trbyplayerStrs[msg.sender].ismatching==false);\r\n       trbyplayerStrs[msg.sender].ismatching=true;\r\n        require(oneDicePrice *roomNum==msg.value);\r\n        //\r\n       require(inherent10matchingstate[roomNum][seatNumber]!=false);\r\n       require(inherent10addrstate[roomNum][seatNumber]!=address(0));\r\n       //\r\n       require(msg.sender != inherent10addrstate[roomNum][seatNumber]);\r\n        //\r\n        inherent10matchingaddr[roomNum][seatNumber]=msg.sender;\r\n        //\r\n        trbyplayeradrr.push(msg.sender);\r\n        //\r\n        Placeholder(msg.sender,roomNum,seatNumber);\r\n        index_=seatNumber;\r\n        weight_=roomNum;\r\n        random=trbyplayerStrs[msg.sender].random;\r\n    }\r\n    //\r\n    function inherentsubmit(uint8 seatNumber,uint8 roomNum) public returns(bool){\r\n        require( player.issubmit!=true);\r\n       playerStr storage player=inherent10Info [roomNum][seatNumber];\r\n       return player.issubmit=true;\r\n    }\r\n    \r\n    //\r\n    function matchingsubmit(uint8 seatNumber,uint8 roomNum) public{\r\n        require( player.issubmit!=true);\r\n        playerStr storage player=trbyplayerStrs[msg.sender];\r\n        player.issubmit=true;\r\n        address _inherent=inherent10addrstate[roomNum][seatNumber];\r\n        require(_inherent!=address(0));\r\n        matchingdraw(_inherent,msg.sender,roomNum,seatNumber);\r\n    }\r\n\r\n   \r\n    //\r\n    function overalldraw() private{\r\n        require(overallBalance>=overallBalanceUplimit);\r\n        uint8 key= uint8(keccak256(abi.encodePacked(now, msg.sender, overallBalance)))%21+1;\r\n        uint256 onkeyprice=Allkey[key];\r\n        everyrbywinInfo[round].rbykeyonprice=onkeyprice;\r\n        everyrbywinInfo[round].rbyoverallBalance=overallBalance;\r\n        everyrbywinInfo[round].rbykey=key;\r\n        round++;\r\n        if(roundbyonediceprice[round]!=0){\r\n            oneDicePrice=roundbyonediceprice[round];\r\n        }\r\n        if(roundbyallbalanceuplimit[round]!=0){\r\n            overallBalanceUplimit=roundbyallbalanceuplimit[round];\r\n        }\r\n        \r\n    }\r\n    \r\n    //\r\n    function drawmoneybyround(uint256 _round,uint256 _balance) external{\r\n        uint8 key_;\r\n        uint256 oneprice_;\r\n        uint256 allbalance_;\r\n        uint256 allkeys_;\r\n       (key_, oneprice_, allbalance_,allkeys_)= iswinbyallbalance(_round);\r\n       require(allkeys_!=0);\r\n       require(allbalance_>=_balance);\r\n       uint256 residuesize=allkeys_.sub(_balance.div(oneprice_));\r\n       everyrbypalyerstrInfo[_round][msg.sender].sizebyhowmany[key_]=residuesize;\r\n       msg.sender.transfer(_balance);\r\n    }\r\n    \r\n    // \r\n    function iswinbyallbalance(uint256 _round) public view returns(uint8 key_,uint256 oneprice_,uint256 allbalance_,uint256 allkeys_){\r\n        key_=everyrbywinInfo[_round].rbykey;\r\n        oneprice_=everyrbywinInfo[_round].rbykey;\r\n        allkeys_=everyrbypalyerstrInfo[_round][msg.sender].sizebyhowmany[key_];\r\n        allbalance_=allkeys_.mul(oneprice_);\r\n    }\r\n    \r\n    //  \r\n    mapping(uint256=>uint256) private roundbyonediceprice;\r\n    function setOneDicePrice(uint256 _price) external OnlyAdmin{\r\n        uint256  round_=round;\r\n        round_++;\r\n        roundbyonediceprice[round_]=_price;\r\n    }\r\n    \r\n    //\r\n    mapping(uint256=>uint256) private roundbyallbalanceuplimit;\r\n    function setoverallBalanceUplimit(uint256 _price) external OnlyAdmin{\r\n         uint256  round_=round;\r\n         round_++;\r\n         roundbyallbalanceuplimit[round_]=_price;\r\n    }\r\n\r\n    //\r\n     function queryeveryrbywinInfobyround(uint256 _round) view public returns(uint8 key_,uint256 allbalance_,uint256 oneprice_){\r\n         key_=everyrbywinInfo[_round].rbykey;\r\n         allbalance_=everyrbywinInfo[_round].rbyoverallBalance;\r\n         oneprice_=everyrbywinInfo[_round].rbykeyonprice;\r\n     }\r\n    //key and pricesize\r\n    function queryallkeyandallpricesizebyround(uint256 _round) public view returns(uint8[] keys_,uint256[] priceSizes_){\r\n        keys_=everyrbypalyerstrInfo[_round][msg.sender].thisrbykeys;\r\n        priceSizes_=everyrbypalyerstrInfo[_round][msg.sender].PriceSizes;\r\n    }\r\n    \r\n//call site \r\n    function callsite(uint8 weight,uint8 index) public view returns(address playaddr,uint256 balance,uint8 weight_,uint8 index_){\r\n        playaddr=inherent10addrstate[weight][index];\r\n        balance=inherent10Info[weight][index].PriceSize;\r\n        weight_=weight;\r\n        index_=index;\r\n    }\r\n    \r\n\r\n    \r\n     //\r\n    function kill() OnlyOwner() external{\r\n        selfdestruct(owner);\r\n    }\r\n    \r\n    function balanceofthis() view public returns(uint256){\r\n        return address(this).balance;\r\n    }\r\n\r\n    }",
  "sourcePath": "F:\\Truffle-Dapp\\GameStandsTallBy21-Dapp\\contracts\\GameStandsTallBy21.sol",
  "compiler": {
    "name": "solc",
    "version": "0.4.24+commit.e67f0147.Emscripten.clang"
  },
  "schemaVersion": "2.0.1",
  "updatedAt": "2018-11-28T02:53:42.585Z"
}