{
  "contractName": "GameStandsTallBy21",
  "abi": [
    {
      "constant": true,
      "inputs": [],
      "name": "round",
      "outputs": [
        {
          "name": "",
          "type": "uint256"
        }
      ],
      "payable": false,
      "stateMutability": "view",
      "type": "function"
    },
    {
      "constant": true,
      "inputs": [],
      "name": "overallBalanceUplimit",
      "outputs": [
        {
          "name": "",
          "type": "uint256"
        }
      ],
      "payable": false,
      "stateMutability": "view",
      "type": "function"
    },
    {
      "constant": true,
      "inputs": [
        {
          "name": "",
          "type": "address"
        }
      ],
      "name": "trbyplayerStrs",
      "outputs": [
        {
          "name": "weight",
          "type": "uint8"
        },
        {
          "name": "thisrbykey",
          "type": "uint8"
        },
        {
          "name": "PriceSize",
          "type": "uint256"
        },
        {
          "name": "dicemul",
          "type": "uint8"
        },
        {
          "name": "dicesize",
          "type": "uint256"
        },
        {
          "name": "lockingTime",
          "type": "uint256"
        },
        {
          "name": "randNonce",
          "type": "uint256"
        },
        {
          "name": "random",
          "type": "uint8"
        },
        {
          "name": "issubmit",
          "type": "bool"
        },
        {
          "name": "isinherent",
          "type": "bool"
        },
        {
          "name": "ismatching",
          "type": "bool"
        }
      ],
      "payable": false,
      "stateMutability": "view",
      "type": "function"
    },
    {
      "constant": true,
      "inputs": [],
      "name": "overallBalance",
      "outputs": [
        {
          "name": "",
          "type": "uint256"
        }
      ],
      "payable": false,
      "stateMutability": "view",
      "type": "function"
    },
    {
      "constant": true,
      "inputs": [
        {
          "name": "",
          "type": "uint256"
        }
      ],
      "name": "everyrbywinInfo",
      "outputs": [
        {
          "name": "rbykey",
          "type": "uint8"
        },
        {
          "name": "rbyoverallBalance",
          "type": "uint256"
        },
        {
          "name": "rbykeyonprice",
          "type": "uint256"
        }
      ],
      "payable": false,
      "stateMutability": "view",
      "type": "function"
    },
    {
      "constant": true,
      "inputs": [],
      "name": "oneDicePrice",
      "outputs": [
        {
          "name": "",
          "type": "uint256"
        }
      ],
      "payable": false,
      "stateMutability": "view",
      "type": "function"
    },
    {
      "inputs": [],
      "payable": false,
      "stateMutability": "nonpayable",
      "type": "constructor"
    },
    {
      "constant": false,
      "inputs": [
        {
          "name": "_adm",
          "type": "address"
        }
      ],
      "name": "setAdmin",
      "outputs": [],
      "payable": false,
      "stateMutability": "nonpayable",
      "type": "function"
    },
    {
      "constant": false,
      "inputs": [
        {
          "name": "weight",
          "type": "uint8"
        },
        {
          "name": "index",
          "type": "uint8"
        }
      ],
      "name": "BuyDice",
      "outputs": [],
      "payable": true,
      "stateMutability": "payable",
      "type": "function"
    },
    {
      "constant": false,
      "inputs": [
        {
          "name": "seatNumber",
          "type": "uint8"
        },
        {
          "name": "roomNum",
          "type": "uint8"
        }
      ],
      "name": "takePosition",
      "outputs": [
        {
          "name": "random",
          "type": "uint8"
        },
        {
          "name": "weight_",
          "type": "uint8"
        },
        {
          "name": "index_",
          "type": "uint8"
        }
      ],
      "payable": true,
      "stateMutability": "payable",
      "type": "function"
    },
    {
      "constant": false,
      "inputs": [
        {
          "name": "seatNumber",
          "type": "uint8"
        },
        {
          "name": "roomNum",
          "type": "uint8"
        }
      ],
      "name": "matchingPosition",
      "outputs": [
        {
          "name": "random",
          "type": "uint8"
        },
        {
          "name": "weight_",
          "type": "uint8"
        },
        {
          "name": "index_",
          "type": "uint8"
        }
      ],
      "payable": true,
      "stateMutability": "payable",
      "type": "function"
    },
    {
      "constant": false,
      "inputs": [
        {
          "name": "seatNumber",
          "type": "uint8"
        },
        {
          "name": "roomNum",
          "type": "uint8"
        }
      ],
      "name": "inherentsubmit",
      "outputs": [
        {
          "name": "",
          "type": "bool"
        }
      ],
      "payable": false,
      "stateMutability": "nonpayable",
      "type": "function"
    },
    {
      "constant": false,
      "inputs": [
        {
          "name": "seatNumber",
          "type": "uint8"
        },
        {
          "name": "roomNum",
          "type": "uint8"
        }
      ],
      "name": "matchingsubmit",
      "outputs": [],
      "payable": true,
      "stateMutability": "payable",
      "type": "function"
    },
    {
      "constant": false,
      "inputs": [
        {
          "name": "_round",
          "type": "uint256"
        },
        {
          "name": "_balance",
          "type": "uint256"
        }
      ],
      "name": "drawmoneybyround",
      "outputs": [],
      "payable": false,
      "stateMutability": "nonpayable",
      "type": "function"
    },
    {
      "constant": true,
      "inputs": [
        {
          "name": "_round",
          "type": "uint256"
        }
      ],
      "name": "iswinbyallbalance",
      "outputs": [
        {
          "name": "key_",
          "type": "uint8"
        },
        {
          "name": "oneprice_",
          "type": "uint256"
        },
        {
          "name": "allbalance_",
          "type": "uint256"
        },
        {
          "name": "allkeys_",
          "type": "uint256"
        }
      ],
      "payable": false,
      "stateMutability": "view",
      "type": "function"
    },
    {
      "constant": false,
      "inputs": [
        {
          "name": "_price",
          "type": "uint256"
        }
      ],
      "name": "setOneDicePrice",
      "outputs": [],
      "payable": false,
      "stateMutability": "nonpayable",
      "type": "function"
    },
    {
      "constant": false,
      "inputs": [
        {
          "name": "_price",
          "type": "uint256"
        }
      ],
      "name": "setoverallBalanceUplimit",
      "outputs": [],
      "payable": false,
      "stateMutability": "nonpayable",
      "type": "function"
    },
    {
      "constant": true,
      "inputs": [
        {
          "name": "_round",
          "type": "uint256"
        }
      ],
      "name": "queryeveryrbywinInfobyround",
      "outputs": [
        {
          "name": "key_",
          "type": "uint8"
        },
        {
          "name": "allbalance_",
          "type": "uint256"
        },
        {
          "name": "oneprice_",
          "type": "uint256"
        }
      ],
      "payable": false,
      "stateMutability": "view",
      "type": "function"
    },
    {
      "constant": true,
      "inputs": [
        {
          "name": "_round",
          "type": "uint256"
        }
      ],
      "name": "queryallkeyandallpricesizebyround",
      "outputs": [
        {
          "name": "keys_",
          "type": "uint8[]"
        },
        {
          "name": "priceSizes_",
          "type": "uint256[]"
        }
      ],
      "payable": false,
      "stateMutability": "view",
      "type": "function"
    },
    {
      "constant": true,
      "inputs": [
        {
          "name": "weight",
          "type": "uint8"
        },
        {
          "name": "index",
          "type": "uint8"
        }
      ],
      "name": "callsite",
      "outputs": [
        {
          "name": "playaddr",
          "type": "address"
        },
        {
          "name": "balance",
          "type": "uint256"
        },
        {
          "name": "weight_",
          "type": "uint8"
        },
        {
          "name": "index_",
          "type": "uint8"
        }
      ],
      "payable": false,
      "stateMutability": "view",
      "type": "function"
    },
    {
      "constant": true,
      "inputs": [
        {
          "name": "_weight",
          "type": "uint8"
        },
        {
          "name": "_index",
          "type": "uint8"
        }
      ],
      "name": "callinherent",
      "outputs": [
        {
          "name": "randoms_",
          "type": "uint8[]"
        }
      ],
      "payable": false,
      "stateMutability": "view",
      "type": "function"
    },
    {
      "constant": true,
      "inputs": [
        {
          "name": "_weight",
          "type": "uint8"
        },
        {
          "name": "_index",
          "type": "uint8"
        }
      ],
      "name": "callmathing",
      "outputs": [
        {
          "name": "randoms_",
          "type": "uint8[]"
        }
      ],
      "payable": false,
      "stateMutability": "view",
      "type": "function"
    },
    {
      "constant": false,
      "inputs": [],
      "name": "kill",
      "outputs": [],
      "payable": false,
      "stateMutability": "nonpayable",
      "type": "function"
    },
    {
      "constant": true,
      "inputs": [],
      "name": "balanceofthis",
      "outputs": [
        {
          "name": "",
          "type": "uint256"
        }
      ],
      "payable": false,
      "stateMutability": "view",
      "type": "function"
    }
  ],
  "bytecode": "0x608060405234801561001057600080fd5b50336000806101000a81548173ffffffffffffffffffffffffffffffffffffffff021916908373ffffffffffffffffffffffffffffffffffffffff16021790555066038d7ea4c68000600381905550600160028190555066038d7ea4c68000600581905550614485806100846000396000f300608060405260043610610133576000357c0100000000000000000000000000000000000000000000000000000000900463ffffffff168063146ca53114610138578063151ece68146101635780631a0040c91461022d57806328afd8c81461025857806341c0e1b514610288578063441ceeb01461029f5780634814a0d7146102ca5780634a6af8a71461038b57806350f5829b146103e7578063704b6c02146104125780637114eb3b1461045557806375a4f57f146104f35780637c56e17a146105575780637e0c64831461058e5780639d28f3b8146105bb578063a81fa742146105e8578063bf0e34091461063d578063bfc24a83146106cf578063c22edb26146106ff578063ca5fdbdd14610791578063caf17069146107e6578063d95fcc131461083b578063f84819f61461089f575b600080fd5b34801561014457600080fd5b5061014d6108ca565b6040518082815260200191505060405180910390f35b34801561016f57600080fd5b5061018e600480360381019080803590602001909291905050506108d0565b604051808060200180602001838103835285818151815260200191508051906020019060200280838360005b838110156101d55780820151818401526020810190506101ba565b50505050905001838103825284818151815260200191508051906020019060200280838360005b838110156102175780820151818401526020810190506101fc565b5050505090500194505050505060405180910390f35b34801561023957600080fd5b50610242610a46565b6040518082815260200191505060405180910390f35b610286600480360381019080803560ff169060200190929190803560ff169060200190929190505050610a4c565b005b34801561029457600080fd5b5061029d610b73565b005b3480156102ab57600080fd5b506102b4610c08565b6040518082815260200191505060405180910390f35b3480156102d657600080fd5b5061030b600480360381019080803573ffffffffffffffffffffffffffffffffffffffff169060200190929190505050610c27565b604051808c60ff1660ff1681526020018b60ff1660ff1681526020018a81526020018960ff1660ff1681526020018881526020018781526020018681526020018560ff1660ff1681526020018415151515815260200183151515158152602001821515151581526020019b50505050505050505050505060405180910390f35b34801561039757600080fd5b506103b660048036038101908080359060200190929190505050610cdc565b604051808560ff1660ff16815260200184815260200183815260200182815260200194505050505060405180910390f35b3480156103f357600080fd5b506103fc610dce565b6040518082815260200191505060405180910390f35b34801561041e57600080fd5b50610453600480360381019080803573ffffffffffffffffffffffffffffffffffffffff169060200190929190505050610dd4565b005b34801561046157600080fd5b50610490600480360381019080803560ff169060200190929190803560ff169060200190929190505050610e73565b604051808573ffffffffffffffffffffffffffffffffffffffff1673ffffffffffffffffffffffffffffffffffffffff1681526020018481526020018360ff1660ff1681526020018260ff1660ff16815260200194505050505060405180910390f35b610521600480360381019080803560ff169060200190929190803560ff169060200190929190505050610f11565b604051808460ff1660ff1681526020018360ff1660ff1681526020018260ff1660ff168152602001935050505060405180910390f35b34801561056357600080fd5b5061058c60048036038101908080359060200190929190803590602001909291905050506112df565b005b34801561059a57600080fd5b506105b960048036038101908080359060200190929190505050611405565b005b3480156105c757600080fd5b506105e6600480360381019080803590602001909291905050506114e3565b005b3480156105f457600080fd5b50610613600480360381019080803590602001909291905050506115c1565b604051808460ff1660ff168152602001838152602001828152602001935050505060405180910390f35b34801561064957600080fd5b50610678600480360381019080803560ff169060200190929190803560ff169060200190929190505050611607565b6040518080602001828103825283818151815260200191508051906020019060200280838360005b838110156106bb5780820151818401526020810190506106a0565b505050509050019250505060405180910390f35b6106fd600480360381019080803560ff169060200190929190803560ff1690602001909291905050506117b4565b005b34801561070b57600080fd5b5061073a600480360381019080803560ff169060200190929190803560ff169060200190929190505050611e2b565b6040518080602001828103825283818151815260200191508051906020019060200280838360005b8381101561077d578082015181840152602081019050610762565b505050509050019250505060405180910390f35b34801561079d57600080fd5b506107bc60048036038101908080359060200190929190505050611fd8565b604051808460ff1660ff168152602001838152602001828152602001935050505060405180910390f35b3480156107f257600080fd5b50610821600480360381019080803560ff169060200190929190803560ff16906020019092919050505061205a565b604051808215151515815260200191505060405180910390f35b610869600480360381019080803560ff169060200190929190803560ff1690602001909291905050506120d9565b604051808460ff1660ff1681526020018360ff1660ff1681526020018260ff1660ff168152602001935050505060405180910390f35b3480156108ab57600080fd5b506108b46124e8565b6040518082815260200191505060405180910390f35b60025481565b6060806008600084815260200190815260200160002060003373ffffffffffffffffffffffffffffffffffffffff1673ffffffffffffffffffffffffffffffffffffffff16815260200190815260200160002060080180548060200260200160405190810160405280929190818152602001828054801561099657602002820191906000526020600020906000905b82829054906101000a900460ff1660ff168152602001906001019060208260000104928301926001038202915080841161095f5790505b505050505091506008600084815260200190815260200160002060003373ffffffffffffffffffffffffffffffffffffffff1673ffffffffffffffffffffffffffffffffffffffff168152602001908152602001600020600901805480602002602001604051908101604052809291908181526020018280548015610a3a57602002820191906000526020600020905b815481526020019060010190808311610a26575b50505050509050915091565b60055481565b600080600a60003373ffffffffffffffffffffffffffffffffffffffff1673ffffffffffffffffffffffffffffffffffffffff16815260200190815260200160002091506001151582600c0160009054906101000a900460ff16151514151515610ab557600080fd5b600182600c0160006101000a81548160ff021916908315150217905550600d60008460ff1660ff16815260200190815260200160002060008560ff1660ff16815260200190815260200160002060009054906101000a900473ffffffffffffffffffffffffffffffffffffffff169050600073ffffffffffffffffffffffffffffffffffffffff168173ffffffffffffffffffffffffffffffffffffffff1614151515610b6157600080fd5b610b6d813385876124ee565b50505050565b6000809054906101000a900473ffffffffffffffffffffffffffffffffffffffff1673ffffffffffffffffffffffffffffffffffffffff163373ffffffffffffffffffffffffffffffffffffffff16141515610bce57600080fd5b6000809054906101000a900473ffffffffffffffffffffffffffffffffffffffff1673ffffffffffffffffffffffffffffffffffffffff16ff5b60003073ffffffffffffffffffffffffffffffffffffffff1631905090565b600a6020528060005260406000206000915090508060000160009054906101000a900460ff16908060000160019054906101000a900460ff16908060010154908060020160009054906101000a900460ff16908060030154908060040154908060050154908060060160009054906101000a900460ff169080600c0160009054906101000a900460ff169080600c0160019054906101000a900460ff169080600c0160029054906101000a900460ff1690508b565b600080600080600785815481101515610cf157fe5b906000526020600020906003020160000160009054906101000a900460ff169350600785815481101515610d2157fe5b906000526020600020906003020160000160009054906101000a900460ff1660ff1692506008600086815260200190815260200160002060003373ffffffffffffffffffffffffffffffffffffffff1673ffffffffffffffffffffffffffffffffffffffff168152602001908152602001600020600b0160008560ff1660ff168152602001908152602001600020549050610dc58382612daf90919063ffffffff16565b91509193509193565b60045481565b6000809054906101000a900473ffffffffffffffffffffffffffffffffffffffff1673ffffffffffffffffffffffffffffffffffffffff163373ffffffffffffffffffffffffffffffffffffffff16141515610e2f57600080fd5b80600160006101000a81548173ffffffffffffffffffffffffffffffffffffffff021916908373ffffffffffffffffffffffffffffffffffffffff16021790555050565b600080600080600d60008760ff1660ff16815260200190815260200160002060008660ff1660ff16815260200190815260200160002060009054906101000a900473ffffffffffffffffffffffffffffffffffffffff169350600c60008760ff1660ff16815260200190815260200160002060008660ff1660ff16815260200190815260200160002060010154925085915084905092959194509250565b600080600060018460ff161480610f2b5750600a8460ff16145b80610f39575060648460ff16145b1515610f4457600080fd5b60008560ff16118015610f5b5750600a8560ff1611155b1515610f6657600080fd5b60001515600a60003373ffffffffffffffffffffffffffffffffffffffff1673ffffffffffffffffffffffffffffffffffffffff168152602001908152602001600020600c0160029054906101000a900460ff161515141515610fc857600080fd5b6001600a60003373ffffffffffffffffffffffffffffffffffffffff1673ffffffffffffffffffffffffffffffffffffffff168152602001908152602001600020600c0160026101000a81548160ff021916908315150217905550348460ff166003540214151561103857600080fd5b60001515600e60008660ff1660ff16815260200190815260200160002060008760ff1660ff16815260200190815260200160002060009054906101000a900460ff1615151415151561108957600080fd5b600073ffffffffffffffffffffffffffffffffffffffff16600d60008660ff1660ff16815260200190815260200160002060008760ff1660ff16815260200190815260200160002060009054906101000a900473ffffffffffffffffffffffffffffffffffffffff1673ffffffffffffffffffffffffffffffffffffffff161415151561111557600080fd5b600d60008560ff1660ff16815260200190815260200160002060008660ff1660ff16815260200190815260200160002060009054906101000a900473ffffffffffffffffffffffffffffffffffffffff1673ffffffffffffffffffffffffffffffffffffffff163373ffffffffffffffffffffffffffffffffffffffff16141515156111a057600080fd5b33600f60008660ff1660ff16815260200190815260200160002060008760ff1660ff16815260200190815260200160002060006101000a81548173ffffffffffffffffffffffffffffffffffffffff021916908373ffffffffffffffffffffffffffffffffffffffff16021790555060093390806001815401808255809150509060018203906000526020600020016000909192909190916101000a81548173ffffffffffffffffffffffffffffffffffffffff021916908373ffffffffffffffffffffffffffffffffffffffff16021790555050611280338587612ded565b849050839150600a60003373ffffffffffffffffffffffffffffffffffffffff1673ffffffffffffffffffffffffffffffffffffffff16815260200190815260200160002060060160009054906101000a900460ff1692509250925092565b60008060008060006112f087610cdc565b809550819650829750839850505050506000821415151561131057600080fd5b85831015151561131f57600080fd5b61134461133585886131c790919063ffffffff16565b836131f190919063ffffffff16565b9050806008600089815260200190815260200160002060003373ffffffffffffffffffffffffffffffffffffffff1673ffffffffffffffffffffffffffffffffffffffff168152602001908152602001600020600b0160008760ff1660ff168152602001908152602001600020819055503373ffffffffffffffffffffffffffffffffffffffff166108fc879081150290604051600060405180830381858888f193505050501580156113fb573d6000803e3d6000fd5b5050505050505050565b60008060009054906101000a900473ffffffffffffffffffffffffffffffffffffffff1673ffffffffffffffffffffffffffffffffffffffff163373ffffffffffffffffffffffffffffffffffffffff1614806114af5750600160009054906101000a900473ffffffffffffffffffffffffffffffffffffffff1673ffffffffffffffffffffffffffffffffffffffff163373ffffffffffffffffffffffffffffffffffffffff16145b15156114ba57600080fd5b600254905080806001019150508160116000838152602001908152602001600020819055505050565b60008060009054906101000a900473ffffffffffffffffffffffffffffffffffffffff1673ffffffffffffffffffffffffffffffffffffffff163373ffffffffffffffffffffffffffffffffffffffff16148061158d5750600160009054906101000a900473ffffffffffffffffffffffffffffffffffffffff1673ffffffffffffffffffffffffffffffffffffffff163373ffffffffffffffffffffffffffffffffffffffff16145b151561159857600080fd5b600254905080806001019150508160106000838152602001908152602001600020819055505050565b6007818154811015156115d057fe5b90600052602060002090600302016000915090508060000160009054906101000a900460ff16908060010154908060020154905083565b606060011515600a60003373ffffffffffffffffffffffffffffffffffffffff1673ffffffffffffffffffffffffffffffffffffffff168152602001908152602001600020600c0160019054906101000a900460ff16151514151561166b57600080fd5b3373ffffffffffffffffffffffffffffffffffffffff16600d60008560ff1660ff16815260200190815260200160002060008460ff1660ff16815260200190815260200160002060009054906101000a900473ffffffffffffffffffffffffffffffffffffffff1673ffffffffffffffffffffffffffffffffffffffff161415156116f557600080fd5b600a60003373ffffffffffffffffffffffffffffffffffffffff1673ffffffffffffffffffffffffffffffffffffffff1681526020019081526020016000206007018054806020026020016040519081016040528092919081815260200182805480156117a757602002820191906000526020600020906000905b82829054906101000a900460ff1660ff16815260200190600101906020826000010492830192600103820291508084116117705790505b5050505050905092915050565b60008060011515600a60003373ffffffffffffffffffffffffffffffffffffffff1673ffffffffffffffffffffffffffffffffffffffff168152602001908152602001600020600c0160019054906101000a900460ff161515148061186c575060011515600a60003373ffffffffffffffffffffffffffffffffffffffff1673ffffffffffffffffffffffffffffffffffffffff168152602001908152602001600020600c0160029054906101000a900460ff161515145b151561187757600080fd5b3373ffffffffffffffffffffffffffffffffffffffff16600d60008660ff1660ff16815260200190815260200160002060008560ff1660ff16815260200190815260200160002060009054906101000a900473ffffffffffffffffffffffffffffffffffffffff1673ffffffffffffffffffffffffffffffffffffffff16148061197c57503373ffffffffffffffffffffffffffffffffffffffff16600f60008660ff1660ff16815260200190815260200160002060008560ff1660ff16815260200190815260200160002060009054906101000a900473ffffffffffffffffffffffffffffffffffffffff1673ffffffffffffffffffffffffffffffffffffffff16145b151561198757600080fd5b600a60003373ffffffffffffffffffffffffffffffffffffffff1673ffffffffffffffffffffffffffffffffffffffff16815260200190815260200160002091508360ff16826003015402341415156119df57600080fd5b61012c82600401540142111515156119f657600080fd5b60158260000160019054906101000a900460ff1660ff1611158015611a30575060008260000160019054906101000a900460ff1660ff1614155b1515611a3b57600080fd5b8360ff1682600301540234141515611a5257600080fd5b428260040181905550611a66336006613212565b838260000160006101000a81548160ff021916908360ff16021790555081600301549050816007018260060160009054906101000a900460ff16908060018154018082558091505090600182039060005260206000209060209182820401919006909192909190916101000a81548160ff021916908360ff160217905550508160060160009054906101000a900460ff168260000160019054906101000a900460ff16018260000160016101000a81548160ff021916908360ff1602179055506003548260010154018260010181905550611b5f60018360020160009054906101000a900460ff1660ff1661337890919063ffffffff16565b8260020160006101000a81548160ff021916908360ff160217905550611ba1611b926002836131c790919063ffffffff16565b8261337890919063ffffffff16565b82600301819055503373ffffffffffffffffffffffffffffffffffffffff16600d60008660ff1660ff16815260200190815260200160002060008560ff1660ff16815260200190815260200160002060009054906101000a900473ffffffffffffffffffffffffffffffffffffffff1673ffffffffffffffffffffffffffffffffffffffff161415611e255781600c60008660ff1660ff16815260200190815260200160002060008560ff1660ff1681526020019081526020016000206000820160009054906101000a900460ff168160000160006101000a81548160ff021916908360ff1602179055506000820160019054906101000a900460ff168160000160016101000a81548160ff021916908360ff160217905550600182015481600101556002820160009054906101000a900460ff168160020160006101000a81548160ff021916908360ff1602179055506003820154816003015560048201548160040155600582015481600501556006820160009054906101000a900460ff168160060160006101000a81548160ff021916908360ff1602179055506007820181600701908054611d5492919061412e565b506008820181600801908054611d6b92919061412e565b506009820181600901908054611d8292919061418e565b50600a820181600a01908054611d9992919061412e565b50600c820160009054906101000a900460ff1681600c0160006101000a81548160ff021916908315150217905550600c820160019054906101000a900460ff1681600c0160016101000a81548160ff021916908315150217905550600c820160029054906101000a900460ff1681600c0160026101000a81548160ff0219169083151502179055509050505b50505050565b606060011515600a60003373ffffffffffffffffffffffffffffffffffffffff1673ffffffffffffffffffffffffffffffffffffffff168152602001908152602001600020600c0160029054906101000a900460ff161515141515611e8f57600080fd5b3373ffffffffffffffffffffffffffffffffffffffff16600f60008560ff1660ff16815260200190815260200160002060008460ff1660ff16815260200190815260200160002060009054906101000a900473ffffffffffffffffffffffffffffffffffffffff1673ffffffffffffffffffffffffffffffffffffffff16141515611f1957600080fd5b600a60003373ffffffffffffffffffffffffffffffffffffffff1673ffffffffffffffffffffffffffffffffffffffff168152602001908152602001600020600701805480602002602001604051908101604052809291908181526020018280548015611fcb57602002820191906000526020600020906000905b82829054906101000a900460ff1660ff1681526020019060010190602082600001049283019260010382029150808411611f945790505b5050505050905092915050565b6000806000600784815481101515611fec57fe5b906000526020600020906003020160000160009054906101000a900460ff16925060078481548110151561201c57fe5b906000526020600020906003020160010154915060078481548110151561203f57fe5b90600052602060002090600302016002015490509193909250565b600080600c60008460ff1660ff16815260200190815260200160002060008560ff1660ff16815260200190815260200160002090506001151581600c0160009054906101000a900460ff161515141515156120b457600080fd5b600181600c0160006101000a81548160ff021916908315150217905591505092915050565b600080600060018460ff1614806120f35750600a8460ff16145b80612101575060648460ff16145b151561210c57600080fd5b60008560ff161180156121235750600a8560ff1611155b151561212e57600080fd5b60001515600a60003373ffffffffffffffffffffffffffffffffffffffff1673ffffffffffffffffffffffffffffffffffffffff168152602001908152602001600020600c0160019054906101000a900460ff16151514151561219057600080fd5b6001600a60003373ffffffffffffffffffffffffffffffffffffffff1673ffffffffffffffffffffffffffffffffffffffff168152602001908152602001600020600c0160016101000a81548160ff021916908315150217905550348460ff166003540214151561220057600080fd5b600073ffffffffffffffffffffffffffffffffffffffff16600d60008660ff1660ff16815260200190815260200160002060008760ff1660ff16815260200190815260200160002060009054906101000a900473ffffffffffffffffffffffffffffffffffffffff1673ffffffffffffffffffffffffffffffffffffffff161480156123085750600073ffffffffffffffffffffffffffffffffffffffff16600f60008660ff1660ff16815260200190815260200160002060008760ff1660ff16815260200190815260200160002060009054906101000a900473ffffffffffffffffffffffffffffffffffffffff1673ffffffffffffffffffffffffffffffffffffffff16145b8015612355575060001515600e60008660ff1660ff16815260200190815260200160002060008760ff1660ff16815260200190815260200160002060009054906101000a900460ff161515145b151561236057600080fd5b33600d60008660ff1660ff16815260200190815260200160002060008760ff1660ff16815260200190815260200160002060006101000a81548173ffffffffffffffffffffffffffffffffffffffff021916908373ffffffffffffffffffffffffffffffffffffffff1602179055506001600e60008660ff1660ff16815260200190815260200160002060008760ff1660ff16815260200190815260200160002060006101000a81548160ff02191690831515021790555060093390806001815401808255809150509060018203906000526020600020016000909192909190916101000a81548173ffffffffffffffffffffffffffffffffffffffff021916908373ffffffffffffffffffffffffffffffffffffffff16021790555050612489338587612ded565b849050839150600a60003373ffffffffffffffffffffffffffffffffffffffff1673ffffffffffffffffffffffffffffffffffffffff16815260200190815260200160002060060160009054906101000a900460ff1692509250925092565b60035481565b6124f66141e0565b6124fe6141e0565b6000806000808873ffffffffffffffffffffffffffffffffffffffff168a73ffffffffffffffffffffffffffffffffffffffff161415151561253f57600080fd5b8973ffffffffffffffffffffffffffffffffffffffff16600d60008a60ff1660ff16815260200190815260200160002060008960ff1660ff16815260200190815260200160002060009054906101000a900473ffffffffffffffffffffffffffffffffffffffff1673ffffffffffffffffffffffffffffffffffffffff161415156125c957600080fd5b600c60008960ff1660ff16815260200190815260200160002060008860ff1660ff1681526020019081526020016000206101e060405190810160405290816000820160009054906101000a900460ff1660ff1660ff1681526020016000820160019054906101000a900460ff1660ff1660ff168152602001600182015481526020016002820160009054906101000a900460ff1660ff1660ff1681526020016003820154815260200160048201548152602001600582015481526020016006820160009054906101000a900460ff1660ff1660ff1681526020016007820180548060200260200160405190810160405280929190818152602001828054801561271757602002820191906000526020600020906000905b82829054906101000a900460ff1660ff16815260200190600101906020826000010492830192600103820291508084116126e05790505b505050505081526020016008820180548060200260200160405190810160405280929190818152602001828054801561279557602002820191906000526020600020906000905b82829054906101000a900460ff1660ff168152602001906001019060208260000104928301926001038202915080841161275e5790505b50505050508152602001600982018054806020026020016040519081016040528092919081815260200182805480156127ed57602002820191906000526020600020905b8154815260200190600101908083116127d9575b50505050508152602001600a820180548060200260200160405190810160405280929190818152602001828054801561286b57602002820191906000526020600020906000905b82829054906101000a900460ff1660ff16815260200190600101906020826000010492830192600103820291508084116128345790505b50505050508152602001600c820160009054906101000a900460ff16151515158152602001600c820160019054906101000a900460ff16151515158152602001600c820160029054906101000a900460ff1615151515815250509550600a60008a73ffffffffffffffffffffffffffffffffffffffff1673ffffffffffffffffffffffffffffffffffffffff1681526020019081526020016000206101e060405190810160405290816000820160009054906101000a900460ff1660ff1660ff1681526020016000820160019054906101000a900460ff1660ff1660ff168152602001600182015481526020016002820160009054906101000a900460ff1660ff1660ff1681526020016003820154815260200160048201548152602001600582015481526020016006820160009054906101000a900460ff1660ff1660ff16815260200160078201805480602002602001604051908101604052809291908181526020018280548015612a2457602002820191906000526020600020906000905b82829054906101000a900460ff1660ff16815260200190600101906020826000010492830192600103820291508084116129ed5790505b5050505050815260200160088201805480602002602001604051908101604052809291908181526020018280548015612aa257602002820191906000526020600020906000905b82829054906101000a900460ff1660ff1681526020019060010190602082600001049283019260010382029150808411612a6b5790505b5050505050815260200160098201805480602002602001604051908101604052809291908181526020018280548015612afa57602002820191906000526020600020905b815481526020019060010190808311612ae6575b50505050508152602001600a8201805480602002602001604051908101604052809291908181526020018280548015612b7857602002820191906000526020600020906000905b82829054906101000a900460ff1660ff1681526020019060010190602082600001049283019260010382029150808411612b415790505b50505050508152602001600c820160009054906101000a900460ff16151515158152602001600c820160019054906101000a900460ff16151515158152602001600c820160029054906101000a900460ff16151515158152505094506001151585610180015115158761018001511515141515141515612bf757600080fd5b856020015193508460200151925060008460ff1614158015612c1d575060008360ff1614155b1515612c2857600080fd5b612c438560400151876040015161337890919063ffffffff16565b91506000612c608460ff168660ff166131f190919063ffffffff16565b1115612c7557612c70828b613399565b612d81565b6000612c908460ff168660ff166131f190919063ffffffff16565b1415612cde576000612cb9866060015160ff16886060015160ff166131f190919063ffffffff16565b1015612cce57612cc9828b613399565b612cd9565b612cd8828a613399565b5b612d80565b612cf9856040015187604001516131f190919063ffffffff16565b90506000811115612d7457612d1c60028660400151612daf90919063ffffffff16565b91508973ffffffffffffffffffffffffffffffffffffffff166108fc829081150290604051600060405180830381858888f19350505050158015612d64573d6000803e3d6000fd5b50612d6f828a613399565b612d7f565b612d7e828a613399565b5b5b5b612d8d8a8a8a8a6134d9565b600554600454101515612da357612da26134fb565b5b50505050505050505050565b6000806000841415612dc45760009150612de6565b8284029050828482811515612dd557fe5b04141515612de257600080fd5b8091505b5092915050565b6000600a60008573ffffffffffffffffffffffffffffffffffffffff1673ffffffffffffffffffffffffffffffffffffffff1681526020019081526020016000209050428160040181905550612e44846006613212565b828160000160006101000a81548160ff021916908360ff1602179055508060060160009054906101000a900460ff168160000160016101000a81548160ff021916908360ff160217905550600354816001018190555060018160020160006101000a81548160ff021916908360ff160217905550806007018160060160009054906101000a900460ff16908060018154018082558091505090600182039060005260206000209060209182820401919006909192909190916101000a81548160ff021916908360ff16021790555050612f3d612f2c60026003546131c790919063ffffffff16565b60035461337890919063ffffffff16565b81600301819055503373ffffffffffffffffffffffffffffffffffffffff16600d60008560ff1660ff16815260200190815260200160002060008460ff1660ff16815260200190815260200160002060009054906101000a900473ffffffffffffffffffffffffffffffffffffffff1673ffffffffffffffffffffffffffffffffffffffff1614156131c15780600c60008560ff1660ff16815260200190815260200160002060008460ff1660ff1681526020019081526020016000206000820160009054906101000a900460ff168160000160006101000a81548160ff021916908360ff1602179055506000820160019054906101000a900460ff168160000160016101000a81548160ff021916908360ff160217905550600182015481600101556002820160009054906101000a900460ff168160020160006101000a81548160ff021916908360ff1602179055506003820154816003015560048201548160040155600582015481600501556006820160009054906101000a900460ff168160060160006101000a81548160ff021916908360ff16021790555060078201816007019080546130f092919061412e565b50600882018160080190805461310792919061412e565b50600982018160090190805461311e92919061418e565b50600a820181600a0190805461313592919061412e565b50600c820160009054906101000a900460ff1681600c0160006101000a81548160ff021916908315150217905550600c820160019054906101000a900460ff1681600c0160016101000a81548160ff021916908315150217905550600c820160029054906101000a900460ff1681600c0160026101000a81548160ff0219169083151502179055509050505b50505050565b6000806000831115156131d957600080fd5b82848115156131e457fe5b0490508091505092915050565b60008083831115151561320357600080fd5b82840390508091505092915050565b6000600a60008473ffffffffffffffffffffffffffffffffffffffff1673ffffffffffffffffffffffffffffffffffffffff168152602001908152602001600020905060018260ff1642338460050154604051602001808481526020018373ffffffffffffffffffffffffffffffffffffffff1673ffffffffffffffffffffffffffffffffffffffff166c0100000000000000000000000002815260140182815260200193505050506040516020818303038152906040526040518082805190602001908083835b6020831015156132ff57805182526020820191506020810190506020830392506132da565b6001836020036101000a03801982511681845116808217855250505050505090500191505060405180910390206001900460ff1681151561333c57fe5b06018160060160006101000a81548160ff021916908360ff1602179055506133726001826005015461337890919063ffffffff16565b50505050565b600080828401905083811015151561338f57600080fd5b8091505092915050565b6000806133c360646133b5605087612daf90919063ffffffff16565b6131c790919063ffffffff16565b91506133ec60646133de600587612daf90919063ffffffff16565b6131c790919063ffffffff16565b90508273ffffffffffffffffffffffffffffffffffffffff166108fc839081150290604051600060405180830381858888f19350505050158015613434573d6000803e3d6000fd5b5061345c606461344e600f87612daf90919063ffffffff16565b6131c790919063ffffffff16565b6004600082825401925050819055506000809054906101000a900473ffffffffffffffffffffffffffffffffffffffff1673ffffffffffffffffffffffffffffffffffffffff166108fc829081150290604051600060405180830381858888f193505050501580156134d2573d6000803e3d6000fd5b5050505050565b6134e3818361372d565b6134ec84613aaa565b6134f583613aaa565b50505050565b6000806005546004541015151561351157600080fd5b600160154233600454604051602001808481526020018373ffffffffffffffffffffffffffffffffffffffff1673ffffffffffffffffffffffffffffffffffffffff166c0100000000000000000000000002815260140182815260200193505050506040516020818303038152906040526040518082805190602001908083835b6020831015156135b75780518252602082019150602081019050602083039250613592565b6001836020036101000a03801982511681845116808217855250505050505090500191505060405180910390206001900460ff168115156135f457fe5b06019150600b60008360ff1660ff16815260200190815260200160002054905080600760025481548110151561362657fe5b906000526020600020906003020160020181905550600454600760025481548110151561364f57fe5b90600052602060002090600302016001018190555081600760025481548110151561367657fe5b906000526020600020906003020160000160006101000a81548160ff021916908360ff1602179055506002600081548092919060010191905055506000601060006002548152602001908152602001600020541415156136ed57601060006002548152602001908152602001600020546003819055505b60006011600060025481526020019081526020016000205414151561372957601160006002548152602001908152602001600020546005819055505b5050565b6137356141e0565b600073ffffffffffffffffffffffffffffffffffffffff16600d60008460ff1660ff16815260200190815260200160002060008560ff1660ff16815260200190815260200160002060009054906101000a900473ffffffffffffffffffffffffffffffffffffffff1673ffffffffffffffffffffffffffffffffffffffff16141515156137c157600080fd5b6000600d60008460ff1660ff16815260200190815260200160002060008560ff1660ff16815260200190815260200160002060006101000a81548173ffffffffffffffffffffffffffffffffffffffff021916908373ffffffffffffffffffffffffffffffffffffffff1602179055506000600e60008460ff1660ff16815260200190815260200160002060008560ff1660ff16815260200190815260200160002060006101000a81548160ff0219169083151502179055506000600f60008460ff1660ff16815260200190815260200160002060008560ff1660ff16815260200190815260200160002060006101000a81548173ffffffffffffffffffffffffffffffffffffffff021916908373ffffffffffffffffffffffffffffffffffffffff16021790555080600c60008460ff1660ff16815260200190815260200160002060008560ff1660ff16815260200190815260200160002060008201518160000160006101000a81548160ff021916908360ff16021790555060208201518160000160016101000a81548160ff021916908360ff1602179055506040820151816001015560608201518160020160006101000a81548160ff021916908360ff1602179055506080820151816003015560a0820151816004015560c0820151816005015560e08201518160060160006101000a81548160ff021916908360ff1602179055506101008201518160070190805190602001906139e4929190614269565b50610120820151816008019080519060200190613a02929190614269565b50610140820151816009019080519060200190613a20929190614310565b5061016082015181600a019080519060200190613a3e929190614269565b5061018082015181600c0160006101000a81548160ff0219169083151502179055506101a082015181600c0160016101000a81548160ff0219169083151502179055506101c082015181600c0160026101000a81548160ff021916908315150217905550905050505050565b60006060613ab66141e0565b600a60008573ffffffffffffffffffffffffffffffffffffffff1673ffffffffffffffffffffffffffffffffffffffff1681526020019081526020016000209250826008018360000160019054906101000a900460ff16908060018154018082558091505090600182039060005260206000209060209182820401919006909192909190916101000a81548160ff021916908360ff16021790555050826009018360010154908060018154018082558091505090600182039060005260206000200160009091929091909150555082600a018360020160009054906101000a900460ff16908060018154018082558091505090600182039060005260206000209060209182820401919006909192909190916101000a81548160ff021916908360ff160217905550508260000160009054906101000a900460ff1660ff1683600b0160008560000160019054906101000a900460ff1660ff1660ff168152602001908152602001600020600082825401925050819055508260000160009054906101000a900460ff1660ff16600b60008560000160019054906101000a900460ff1660ff1660ff1681526020019081526020016000206000828254019250508190555060008360000160006101000a81548160ff021916908360ff16021790555060008360000160016101000a81548160ff021916908360ff16021790555060008360020160006101000a81548160ff021916908360ff16021790555060008360030181905550600083600401819055506000836005018190555060008360060160006101000a81548160ff021916908360ff160217905550600083600c0160006101000a81548160ff02191690831515021790555081836007019080519060200190613d4492919061435d565b508260086000600254815260200190815260200160002060008673ffffffffffffffffffffffffffffffffffffffff1673ffffffffffffffffffffffffffffffffffffffff1681526020019081526020016000206000820160009054906101000a900460ff168160000160006101000a81548160ff021916908360ff1602179055506000820160019054906101000a900460ff168160000160016101000a81548160ff021916908360ff160217905550600182015481600101556002820160009054906101000a900460ff168160020160006101000a81548160ff021916908360ff1602179055506003820154816003015560048201548160040155600582015481600501556006820160009054906101000a900460ff168160060160006101000a81548160ff021916908360ff1602179055506007820181600701908054613e8e92919061412e565b506008820181600801908054613ea592919061412e565b506009820181600901908054613ebc92919061418e565b50600a820181600a01908054613ed392919061412e565b50600c820160009054906101000a900460ff1681600c0160006101000a81548160ff021916908315150217905550600c820160019054906101000a900460ff1681600c0160016101000a81548160ff021916908315150217905550600c820160029054906101000a900460ff1681600c0160026101000a81548160ff02191690831515021790555090505080600a60008673ffffffffffffffffffffffffffffffffffffffff1673ffffffffffffffffffffffffffffffffffffffff16815260200190815260200160002060008201518160000160006101000a81548160ff021916908360ff16021790555060208201518160000160016101000a81548160ff021916908360ff1602179055506040820151816001015560608201518160020160006101000a81548160ff021916908360ff1602179055506080820151816003015560a0820151816004015560c0820151816005015560e08201518160060160006101000a81548160ff021916908360ff160217905550610100820151816007019080519060200190614067929190614269565b50610120820151816008019080519060200190614085929190614269565b506101408201518160090190805190602001906140a3929190614310565b5061016082015181600a0190805190602001906140c1929190614269565b5061018082015181600c0160006101000a81548160ff0219169083151502179055506101a082015181600c0160016101000a81548160ff0219169083151502179055506101c082015181600c0160026101000a81548160ff02191690831515021790555090505050505050565b82805482825590600052602060002090601f0160209004810192821561417d57600052602060002091601f016020900482015b8281111561417c578254825591600101919060010190614161565b5b50905061418a9190614404565b5090565b8280548282559060005260206000209081019282156141cf5760005260206000209182015b828111156141ce5782548255916001019190600101906141b3565b5b5090506141dc9190614434565b5090565b6101e060405190810160405280600060ff168152602001600060ff16815260200160008152602001600060ff168152602001600081526020016000815260200160008152602001600060ff168152602001606081526020016060815260200160608152602001606081526020016000151581526020016000151581526020016000151581525090565b82805482825590600052602060002090601f016020900481019282156142ff5791602002820160005b838211156142d057835183826101000a81548160ff021916908360ff1602179055509260200192600101602081600001049283019260010302614292565b80156142fd5782816101000a81549060ff02191690556001016020816000010492830192600103026142d0565b505b50905061430c9190614404565b5090565b82805482825590600052602060002090810192821561434c579160200282015b8281111561434b578251825591602001919060010190614330565b5b5090506143599190614434565b5090565b82805482825590600052602060002090601f016020900481019282156143f35791602002820160005b838211156143c457835183826101000a81548160ff021916908360ff1602179055509260200192600101602081600001049283019260010302614386565b80156143f15782816101000a81549060ff02191690556001016020816000010492830192600103026143c4565b505b5090506144009190614404565b5090565b61443191905b8082111561442d57600081816101000a81549060ff02191690555060010161440a565b5090565b90565b61445691905b8082111561445257600081600090555060010161443a565b5090565b905600a165627a7a72305820280bea03e08377db0f3f484102c9014e59725fefec50e2651539f7afb41c16c10029",
  "source": "pragma solidity ^0.4.17;\r\nlibrary SafeMath {\r\n\r\n  /**\r\n  * @dev Multiplies two numbers, reverts on overflow.\r\n  */\r\n  function mul(uint256 a, uint256 b) internal pure returns (uint256) {\r\n    // Gas optimization: this is cheaper than requiring 'a' not being zero, but the\r\n    // benefit is lost if 'b' is also tested.\r\n    // See: https://github.com/OpenZeppelin/openzeppelin-solidity/pull/522\r\n    if (a == 0) {\r\n      return 0;\r\n    }\r\n\r\n    uint256 c = a * b;\r\n    require(c / a == b);\r\n\r\n    return c;\r\n  }\r\n\r\n  /**\r\n  * @dev Integer division of two numbers truncating the quotient, reverts on division by zero.\r\n  */\r\n  function div(uint256 a, uint256 b) internal pure returns (uint256) {\r\n    require(b > 0); // Solidity only automatically asserts when dividing by 0\r\n    uint256 c = a / b;\r\n    // assert(a == b * c + a % b); // There is no case in which this doesn't hold\r\n\r\n    return c;\r\n  }\r\n\r\n  /**\r\n  * @dev Subtracts two numbers, reverts on overflow (i.e. if subtrahend is greater than minuend).\r\n  */\r\n  function sub(uint256 a, uint256 b) internal pure returns (uint256) {\r\n    require(b <= a);\r\n    uint256 c = a - b;\r\n\r\n    return c;\r\n  }\r\n\r\n  /**\r\n  * @dev Adds two numbers, reverts on overflow.\r\n  */\r\n  function add(uint256 a, uint256 b) internal pure returns (uint256) {\r\n    uint256 c = a + b;\r\n    require(c >= a);\r\n\r\n    return c;\r\n  }\r\n\r\n  /**\r\n  * @dev Divides two numbers and returns the remainder (unsigned integer modulo),\r\n  * reverts when dividing by zero.\r\n  */\r\n  function mod(uint256 a, uint256 b) internal pure returns (uint256) {\r\n    require(b != 0);\r\n    return a % b;\r\n  }\r\n}\r\n\r\ncontract GameStandsTallBy21{\r\n    \tusing SafeMath for *;\r\n\r\n    // 2121\r\n    // \r\n\r\n    // 12\r\n\t// \r\n    // \r\n    // \r\n    // 12\r\n    // 80%20%60%30%10%\r\n    \r\n    // \r\n    // 1.150.001ether\r\n    // 21\r\n\t// \r\n    // \r\n\t// \r\n    // 80%,15%g5%\r\n    // 80%,15%g5%\r\n    // \r\n    // \r\n    address owner;\r\n    // \r\n    address admin;\r\n    //\r\n    uint256 public round ;\r\n    //\r\n    uint256 public oneDicePrice;\r\n    //\r\n    uint256 public overallBalance;\r\n    // \r\n    uint256 public overallBalanceUplimit;\r\n    //key21key  \r\n    \r\n     //\r\n    uint256 dicelevel;\r\n\r\n    //\r\n    struct winInfo{\r\n            uint8 rbykey;\r\n            uint256 rbyoverallBalance;\r\n            uint256 rbykeyonprice;\r\n    }\r\n\r\n    //\r\n    winInfo[] public everyrbywinInfo;\r\n    //\r\n    mapping(\r\n        uint256=>mapping(address=>playerStr)\r\n        )private\r\n         everyrbypalyerstrInfo;\r\n    //\r\n    address[] trbyplayeradrr;\r\n    //\r\n    mapping(address=>playerStr) public trbyplayerStrs;\r\n    //\r\n    struct playerStr{\r\n            // 1 10 100 \r\n            uint8 weight;\r\n            // \r\n            uint8 thisrbykey;\r\n            //\r\n            uint256 PriceSize;\r\n            //\r\n            uint8 dicemul;\r\n            // \r\n            uint256 dicesize;\r\n            //\r\n            uint lockingTime; \r\n            //\r\n            uint randNonce; \r\n            //\r\n            uint8 random; \r\n            //\r\n            uint8[] randoms;\r\n            //\r\n            uint8 [] thisrbykeys;\r\n            //\r\n            uint256 [] PriceSizes;\r\n             //\r\n            uint8 [] dicemuls;\r\n            // size => howmany =( 1 1010 100) \r\n            mapping(uint8=>uint256) sizebyhowmany;\r\n            //\r\n            bool issubmit;\r\n            //  \r\n            bool isinherent;\r\n            //\r\n            bool ismatching;\r\n\r\n    }\r\n    //key=>Allkey\r\n    mapping(uint8=>uint256) private Allkey;\r\n    //  => index=>   private\r\n    mapping(uint8=>mapping(uint8=>playerStr)) private inherent10Info;\r\n    // => index=>  private\r\n    mapping(uint8=>mapping(uint8=>address)) private inherent10addrstate;\r\n    // => index=> bool private\r\n    mapping(uint8=>mapping(uint8=>bool)) private inherent10matchingstate; \r\n    //  => index=> address private\r\n    mapping(uint8=>mapping(uint8=>address)) private inherent10matchingaddr; \r\n    // // index=>playerStr\r\n    // mapping(\r\n    //     uint256 =>mapping(address=>playerStr)\r\n    //     ) inherent10oneInfo;\r\n    // //\r\n    // mapping(uint256=>address)inherent10onestate;    \r\n    // //\r\n    //  mapping(\r\n    //     uint256 =>mapping(address=>playerStr)\r\n    //     ) inherent10tenInfo;\r\n    //     //\r\n    //     mapping(uint256=>address)inherent10tenstate;\r\n    // //\r\n    //  mapping(\r\n    //    uint256 =>mapping(address=>playerStr)\r\n    //     ) inherent10hundredInfo;\r\n    //     //\r\n    //  mapping(uint256=>address)inherent10hundredstate;\r\n    //\r\n    constructor() public{\r\n        owner=msg.sender;\r\n        oneDicePrice=0.001 ether;\r\n        round=1;\r\n        overallBalanceUplimit=0.001 ether;\r\n\r\n    }\r\n\r\n    //\r\n    modifier OnlyOwner(){\r\n        require(msg.sender==owner);\r\n        _;\r\n    }\r\n    //\r\n    modifier OnlyAdmin(){\r\n        require(msg.sender==owner||msg.sender==admin);\r\n        _;\r\n    }\r\n\r\n    //\r\n    function setAdmin(address _adm) \r\n        OnlyOwner()\r\n        external{\r\n            admin=_adm;\r\n    }\r\n   \r\n\r\n    //\r\n    //\r\n\r\n  \r\n    \r\n     //(1-6)\r\n    function Dice(address challenger,uint8 den) internal {\r\n        playerStr storage player = trbyplayerStrs[challenger];\r\n        player.random = uint8(keccak256(abi.encodePacked(now, msg.sender, player.randNonce)))%den+1;\r\n        player.randNonce.add(1);\r\n    }\r\n\r\n    // \r\n    function BuyDice(uint8 weight,uint8 index) public payable {\r\n        require(trbyplayerStrs[msg.sender].isinherent==true||trbyplayerStrs[msg.sender].ismatching==true);\r\n        require(inherent10addrstate[weight][index]==msg.sender||inherent10matchingaddr[weight][index]==msg.sender);\r\n        playerStr storage player = trbyplayerStrs[msg.sender];\r\n        //\r\n        require(msg.value==player.dicesize*weight);\r\n        require(now <= (player.lockingTime + 5 minutes));\r\n        //21 \r\n        require(player.thisrbykey <= 21&&player.thisrbykey!=0);\r\n        require(msg.value==player.dicesize*weight);\r\n            //\r\n            player.lockingTime = now;\r\n            //(1-6)\r\n            Dice(msg.sender,6);\r\n            //\r\n            player.weight = weight;\r\n            uint256 temp=player.dicesize;\r\n            player.randoms.push(player.random);\r\n            player.thisrbykey = player.thisrbykey + player.random;\r\n            player.PriceSize = player.PriceSize + oneDicePrice;\r\n            player.dicemul = uint8(player.dicemul.add(1));\r\n            player.dicesize = temp.add(temp.div(2));\r\n        if(inherent10addrstate[weight][index]==msg.sender){\r\n            inherent10Info[weight][index]=player;\r\n        }\r\n       \r\n    }\r\n    // \r\n     function Placeholder(address placeholder, uint8 weight, uint8 index) internal {\r\n        playerStr storage player = trbyplayerStrs[placeholder];\r\n        //\r\n        //\r\n        player.lockingTime = now;\r\n        //(1-6)\r\n        Dice(placeholder,6);\r\n        //\r\n        player.weight = weight;\r\n        player.thisrbykey = player.random;\r\n        player.PriceSize = oneDicePrice;\r\n        player.dicemul = 1;\r\n        player.randoms.push(player.random);\r\n        player.dicesize =oneDicePrice.add(oneDicePrice.div(2));\r\n        if(inherent10addrstate[weight][index]==msg.sender){\r\n            inherent10Info[weight][index] = player;\r\n        }\r\n        \r\n    }\r\n    \r\n    //\r\n    function matchingdraw(address _inherent,address _match,uint8 _weight,uint8 index) private                                                                                                                                                                                                                                                                                                                                                                                       {\r\n        require(_inherent!=_match);\r\n        require(inherent10addrstate[_weight][index]==_inherent);\r\n        playerStr memory _inherentplayer=inherent10Info[_weight][index];\r\n        playerStr memory _matchplayer=trbyplayerStrs[_match];\r\n        require(_inherentplayer.issubmit==_matchplayer.issubmit==true);\r\n        uint8 keyone=_inherentplayer.thisrbykey;\r\n        uint8 keytwo=_matchplayer.thisrbykey;\r\n        require(keyone!=0&&keytwo!=0);\r\n        uint256 allprice=_inherentplayer.PriceSize.add(_matchplayer.PriceSize);\r\n        if(keyone.sub(keytwo)>0){\r\n            winTransfer(allprice,_inherent);\r\n        }\r\n        else if(keyone.sub(keytwo)==0){\r\n              if(_inherentplayer.dicemul.sub(_matchplayer.dicemul)<0){\r\n                      winTransfer(allprice,_inherent);\r\n              }else{\r\n                      winTransfer(allprice,_match);\r\n              }  \r\n        }\r\n        else{\r\n                uint256 isresidue= _inherentplayer.PriceSize.sub(_matchplayer.PriceSize);\r\n                  if(isresidue>0){\r\n                      allprice=_matchplayer.PriceSize.mul(2);\r\n                      _inherent.transfer(isresidue);\r\n                      winTransfer(allprice,_match);\r\n                  }else{\r\n                      winTransfer(allprice,_match);\r\n                  }\r\n        }\r\n      wincleardata(_inherent,_match,_weight,index);\r\n      if(overallBalance>=overallBalanceUplimit){\r\n        overalldraw();\r\n        }\r\n    }\r\n    \r\n   // \r\n    function winTransfer(uint256 allprice,address winaddr) private{\r\n            uint256 winprice=allprice.mul(80).div(100);\r\n            uint256 winownerpricae=allprice.mul(5).div(100);\r\n            winaddr.transfer(winprice);\r\n            overallBalance+=(allprice.mul(15).div(100));\r\n            owner.transfer(winownerpricae);\r\n    }\r\n   \r\n    //\r\n    function wincleardata(address _inherent,address _match,uint8 _weight,uint8 index) private{\r\n        clearPosition(index,_weight);\r\n        //\r\n        updateplayer(_inherent);\r\n        updateplayer(_match);\r\n       \r\n    }\r\n    //  \r\n    function updateplayer(address _addr) private{\r\n        playerStr storage player= trbyplayerStrs[_addr];\r\n        player.thisrbykeys.push(player.thisrbykey);\r\n        player.PriceSizes.push(player.PriceSize);\r\n        player.dicemuls.push(player.dicemul);\r\n        player.sizebyhowmany[player.thisrbykey]+=player.weight;\r\n        Allkey[player.thisrbykey]+=player.weight;\r\n        player.weight=0;\r\n        player.thisrbykey=0;\r\n        player.dicemul=0;\r\n        player.dicesize=0;\r\n        player.lockingTime=0;\r\n        player.randNonce=0;\r\n        player.random=0;\r\n        player.issubmit=false;\r\n        uint8[] memory s1;\r\n        player.randoms=s1;\r\n        everyrbypalyerstrInfo[round][_addr]=player;\r\n        playerStr memory p1;\r\n        trbyplayerStrs[_addr]=p1;\r\n    }\r\n\r\n   \r\n\r\n    //,pk\r\n    //seatNumberroomNum\r\n    // \r\n    function clearPosition(uint8 seatNumber,uint8 roomNum)private{\r\n        //address0\r\n       require(inherent10addrstate[roomNum][seatNumber]!=address(0));\r\n       inherent10addrstate[roomNum][seatNumber]=address(0);\r\n       inherent10matchingstate[roomNum][seatNumber]=false;\r\n       inherent10matchingaddr[roomNum][seatNumber]=address(0);\r\n        //playerStr\r\n        playerStr memory  pl;\r\n       inherent10Info[roomNum][seatNumber]=pl;\r\n      \r\n    }\r\n    \r\n    //   //  => index=>   \r\n    // mapping(uint8=>mapping(uint8=>playerStr)) private inherent10Info;\r\n    // // => index=> \r\n    // mapping(uint8=>mapping(uint8=>address)) private inherent10addrstate;\r\n    // // => index=> bool\r\n    // mapping(uint8=>mapping(uint8=>bool)) private inherent10matchingstate; \r\n    // //  => index=> address\r\n    // mapping(uint8=>mapping(uint8=>address)) private inherent10matchingaddr; \r\n        //\r\n    //seatNumber//, roomNum//, periodsNum//\r\n    function takePosition(uint8 seatNumber,uint8 roomNum)public payable returns(uint8 random,uint8 weight_ ,uint8 index_){\r\n      require(roomNum==1||roomNum==10||roomNum==100);\r\n      require(seatNumber>0&&seatNumber<=10);\r\n      require(trbyplayerStrs[msg.sender].isinherent==false);\r\n      trbyplayerStrs[msg.sender].isinherent=true;\r\n      require(oneDicePrice *roomNum==msg.value);\r\n        ////address,\r\n      require(inherent10addrstate[roomNum][seatNumber]==address(0)&&\r\n      inherent10matchingaddr[roomNum][seatNumber]==address(0)&&\r\n      inherent10matchingstate[roomNum][seatNumber]==false);\r\n       //mapping\r\n      inherent10addrstate[roomNum][seatNumber]=msg.sender;\r\n      inherent10matchingstate[roomNum][seatNumber]=true;\r\n      //\r\n      trbyplayeradrr.push(msg.sender);\r\n      Placeholder(msg.sender,roomNum,seatNumber);\r\n       index_=seatNumber;\r\n       weight_=roomNum;\r\n       random=trbyplayerStrs[msg.sender].random;\r\n    }\r\n\r\n    //\r\n    function matchingPosition(uint8 seatNumber,uint8 roomNum)public payable returns(uint8 random,uint8 weight_ ,uint8 index_){\r\n       require(roomNum==1||roomNum==10||roomNum==100);\r\n       require(seatNumber>0&&seatNumber<=10);\r\n       require(trbyplayerStrs[msg.sender].ismatching==false);\r\n       trbyplayerStrs[msg.sender].ismatching=true;\r\n        require(oneDicePrice *roomNum==msg.value);\r\n        //\r\n       require(inherent10matchingstate[roomNum][seatNumber]!=false);\r\n       require(inherent10addrstate[roomNum][seatNumber]!=address(0));\r\n       //\r\n       require(msg.sender != inherent10addrstate[roomNum][seatNumber]);\r\n        //\r\n        inherent10matchingaddr[roomNum][seatNumber]=msg.sender;\r\n        //\r\n        trbyplayeradrr.push(msg.sender);\r\n        //\r\n        Placeholder(msg.sender,roomNum,seatNumber);\r\n        index_=seatNumber;\r\n        weight_=roomNum;\r\n        random=trbyplayerStrs[msg.sender].random;\r\n    }\r\n    //\r\n    function inherentsubmit(uint8 seatNumber,uint8 roomNum) public returns(bool){\r\n       playerStr storage player=inherent10Info [roomNum][seatNumber];\r\n       require( player.issubmit!=true);\r\n       return player.issubmit=true;\r\n    }\r\n    \r\n    //\r\n    function matchingsubmit(uint8 seatNumber,uint8 roomNum) payable public{\r\n        playerStr storage player=trbyplayerStrs[msg.sender];\r\n         require( player.issubmit!=true);\r\n        player.issubmit=true;\r\n        address _inherent=inherent10addrstate[roomNum][seatNumber];\r\n        require(_inherent!=address(0));\r\n        matchingdraw(_inherent,msg.sender,roomNum,seatNumber);\r\n    }\r\n\r\n   \r\n    //\r\n    function overalldraw() private{\r\n        require(overallBalance>=overallBalanceUplimit);\r\n        uint8 key= uint8(keccak256(abi.encodePacked(now, msg.sender, overallBalance)))%21+1;\r\n        uint256 onkeyprice=Allkey[key];\r\n        everyrbywinInfo[round].rbykeyonprice=onkeyprice;\r\n        everyrbywinInfo[round].rbyoverallBalance=overallBalance;\r\n        everyrbywinInfo[round].rbykey=key;\r\n        round++;\r\n        if(roundbyonediceprice[round]!=0){\r\n            oneDicePrice=roundbyonediceprice[round];\r\n        }\r\n        if(roundbyallbalanceuplimit[round]!=0){\r\n            overallBalanceUplimit=roundbyallbalanceuplimit[round];\r\n        }\r\n    }        \r\n    //\r\n    function drawmoneybyround(uint256 _round,uint256 _balance) external{\r\n        uint8 key_;\r\n        uint256 oneprice_;\r\n        uint256 allbalance_;\r\n        uint256 allkeys_;\r\n       (key_, oneprice_, allbalance_,allkeys_)= iswinbyallbalance(_round);\r\n       require(allkeys_!=0);\r\n       require(allbalance_>=_balance);\r\n       uint256 residuesize=allkeys_.sub(_balance.div(oneprice_));\r\n       everyrbypalyerstrInfo[_round][msg.sender].sizebyhowmany[key_]=residuesize;\r\n       msg.sender.transfer(_balance);\r\n    }\r\n    \r\n    // \r\n    function iswinbyallbalance(uint256 _round) public view returns(uint8 key_,uint256 oneprice_,uint256 allbalance_,uint256 allkeys_){\r\n        key_=everyrbywinInfo[_round].rbykey;\r\n        oneprice_=everyrbywinInfo[_round].rbykey;\r\n        allkeys_=everyrbypalyerstrInfo[_round][msg.sender].sizebyhowmany[key_];\r\n        allbalance_=allkeys_.mul(oneprice_);\r\n    }\r\n    \r\n    //  \r\n    mapping(uint256=>uint256) private roundbyonediceprice;\r\n    function setOneDicePrice(uint256 _price) external OnlyAdmin{\r\n        uint256  round_=round;\r\n        round_++;\r\n        roundbyonediceprice[round_]=_price;\r\n    }\r\n    \r\n    //\r\n    mapping(uint256=>uint256) private roundbyallbalanceuplimit;\r\n    function setoverallBalanceUplimit(uint256 _price) external OnlyAdmin{\r\n         uint256  round_=round;\r\n         round_++;\r\n         roundbyallbalanceuplimit[round_]=_price;\r\n    }\r\n\r\n    //\r\n     function queryeveryrbywinInfobyround(uint256 _round) view public returns(uint8 key_,uint256 allbalance_,uint256 oneprice_){\r\n         key_=everyrbywinInfo[_round].rbykey;\r\n         allbalance_=everyrbywinInfo[_round].rbyoverallBalance;\r\n         oneprice_=everyrbywinInfo[_round].rbykeyonprice;\r\n     }\r\n    //key and pricesize\r\n    function queryallkeyandallpricesizebyround(uint256 _round) public view returns(uint8[] keys_,uint256[] priceSizes_){\r\n        keys_=everyrbypalyerstrInfo[_round][msg.sender].thisrbykeys;\r\n        priceSizes_=everyrbypalyerstrInfo[_round][msg.sender].PriceSizes;\r\n    }\r\n    \r\n    //call site \r\n    function callsite(uint8 weight,uint8 index) public view returns(address playaddr,uint256 balance,uint8 weight_,uint8 index_){\r\n        playaddr=inherent10addrstate[weight][index];\r\n        balance=inherent10Info[weight][index].PriceSize;\r\n        weight_=weight;\r\n        index_=index;\r\n    }\r\n    // \r\n    function callinherent(uint8 _weight,uint8 _index)public view returns(uint8[] randoms_){\r\n        require(trbyplayerStrs[msg.sender].isinherent==true);\r\n        require(inherent10addrstate[_weight][_index]==msg.sender);\r\n        randoms_=trbyplayerStrs[msg.sender].randoms;\r\n    }\r\n     function callmathing(uint8 _weight,uint8 _index)public view returns(uint8[] randoms_){\r\n        require(trbyplayerStrs[msg.sender].ismatching==true);\r\n        require(inherent10matchingaddr[_weight][_index]==msg.sender);\r\n        randoms_=trbyplayerStrs[msg.sender].randoms;\r\n    }\r\n    \r\n     //\r\n    function kill() OnlyOwner() external{\r\n        selfdestruct(owner);\r\n    }\r\n    \r\n    function balanceofthis() view public returns(uint256){\r\n        return address(this).balance;\r\n    }\r\n\r\n    }",
  "sourcePath": "F:\\Truffle-Dapp\\GameStandsTallBy21-Dapp\\contracts\\GameStandsTallBy21.sol",
  "compiler": {
    "name": "solc",
    "version": "0.4.24+commit.e67f0147.Emscripten.clang"
  },
  "schemaVersion": "2.0.1",
  "updatedAt": "2018-11-30T02:29:53.109Z"
}